{
  "contracts/InheritanceModule.sol": {
    "InheritanceModule": {
      "abi": [
        {
          "anonymous": false,
          "inputs": [
            {
              "indexed": false,
              "internalType": "address",
              "name": "owner",
              "type": "address"
            }
          ],
          "name": "AddedOwner",
          "type": "event"
        },
        {
          "anonymous": false,
          "inputs": [
            {
              "indexed": false,
              "internalType": "uint256",
              "name": "threshold",
              "type": "uint256"
            }
          ],
          "name": "ChangedThreshold",
          "type": "event"
        },
        {
          "anonymous": false,
          "inputs": [
            {
              "indexed": false,
              "internalType": "address",
              "name": "owner",
              "type": "address"
            }
          ],
          "name": "RemovedOwner",
          "type": "event"
        },
        {
          "inputs": [],
          "name": "ALLOWANCE_TRANSFER_TYPEHASH",
          "outputs": [
            {
              "internalType": "bytes32",
              "name": "",
              "type": "bytes32"
            }
          ],
          "stateMutability": "view",
          "type": "function"
        },
        {
          "inputs": [],
          "name": "DOMAIN_SEPARATOR_TYPEHASH",
          "outputs": [
            {
              "internalType": "bytes32",
              "name": "",
              "type": "bytes32"
            }
          ],
          "stateMutability": "view",
          "type": "function"
        },
        {
          "inputs": [],
          "name": "NAME",
          "outputs": [
            {
              "internalType": "string",
              "name": "",
              "type": "string"
            }
          ],
          "stateMutability": "view",
          "type": "function"
        },
        {
          "inputs": [],
          "name": "VERSION",
          "outputs": [
            {
              "internalType": "string",
              "name": "",
              "type": "string"
            }
          ],
          "stateMutability": "view",
          "type": "function"
        },
        {
          "inputs": [
            {
              "internalType": "address",
              "name": "owner",
              "type": "address"
            },
            {
              "internalType": "uint256",
              "name": "_threshold",
              "type": "uint256"
            }
          ],
          "name": "addOwnerWithThreshold",
          "outputs": [],
          "stateMutability": "nonpayable",
          "type": "function"
        },
        {
          "inputs": [
            {
              "internalType": "uint256",
              "name": "_threshold",
              "type": "uint256"
            }
          ],
          "name": "changeThreshold",
          "outputs": [],
          "stateMutability": "nonpayable",
          "type": "function"
        },
        {
          "inputs": [
            {
              "internalType": "bytes",
              "name": "data",
              "type": "bytes"
            }
          ],
          "name": "getDataHash",
          "outputs": [
            {
              "internalType": "bytes32",
              "name": "",
              "type": "bytes32"
            }
          ],
          "stateMutability": "pure",
          "type": "function"
        },
        {
          "inputs": [],
          "name": "getOwners",
          "outputs": [
            {
              "internalType": "address[]",
              "name": "",
              "type": "address[]"
            }
          ],
          "stateMutability": "view",
          "type": "function"
        },
        {
          "inputs": [],
          "name": "getThreshold",
          "outputs": [
            {
              "internalType": "uint256",
              "name": "",
              "type": "uint256"
            }
          ],
          "stateMutability": "view",
          "type": "function"
        },
        {
          "inputs": [
            {
              "internalType": "contract GnosisSafe",
              "name": "safe",
              "type": "address"
            },
            {
              "internalType": "address",
              "name": "prevOwner",
              "type": "address"
            },
            {
              "internalType": "address",
              "name": "oldOwner",
              "type": "address"
            },
            {
              "internalType": "address",
              "name": "newOwner",
              "type": "address"
            }
          ],
          "name": "inherit",
          "outputs": [],
          "stateMutability": "nonpayable",
          "type": "function"
        },
        {
          "inputs": [
            {
              "internalType": "uint256",
              "name": "",
              "type": "uint256"
            }
          ],
          "name": "inheritants",
          "outputs": [
            {
              "internalType": "address",
              "name": "",
              "type": "address"
            }
          ],
          "stateMutability": "view",
          "type": "function"
        },
        {
          "inputs": [
            {
              "internalType": "bytes32",
              "name": "",
              "type": "bytes32"
            }
          ],
          "name": "isExecuted",
          "outputs": [
            {
              "internalType": "bool",
              "name": "",
              "type": "bool"
            }
          ],
          "stateMutability": "view",
          "type": "function"
        },
        {
          "inputs": [
            {
              "internalType": "address",
              "name": "",
              "type": "address"
            }
          ],
          "name": "isInheritant",
          "outputs": [
            {
              "internalType": "bool",
              "name": "",
              "type": "bool"
            }
          ],
          "stateMutability": "view",
          "type": "function"
        },
        {
          "inputs": [
            {
              "internalType": "address",
              "name": "owner",
              "type": "address"
            }
          ],
          "name": "isOwner",
          "outputs": [
            {
              "internalType": "bool",
              "name": "",
              "type": "bool"
            }
          ],
          "stateMutability": "view",
          "type": "function"
        },
        {
          "inputs": [
            {
              "internalType": "address[]",
              "name": "_inheritants",
              "type": "address[]"
            }
          ],
          "name": "reconfigure",
          "outputs": [],
          "stateMutability": "nonpayable",
          "type": "function"
        },
        {
          "inputs": [],
          "name": "removeInheritance",
          "outputs": [],
          "stateMutability": "nonpayable",
          "type": "function"
        },
        {
          "inputs": [
            {
              "internalType": "address",
              "name": "prevOwner",
              "type": "address"
            },
            {
              "internalType": "address",
              "name": "owner",
              "type": "address"
            },
            {
              "internalType": "uint256",
              "name": "_threshold",
              "type": "uint256"
            }
          ],
          "name": "removeOwner",
          "outputs": [],
          "stateMutability": "nonpayable",
          "type": "function"
        },
        {
          "inputs": [
            {
              "internalType": "address[]",
              "name": "_inheritants",
              "type": "address[]"
            }
          ],
          "name": "setup",
          "outputs": [],
          "stateMutability": "nonpayable",
          "type": "function"
        },
        {
          "inputs": [
            {
              "internalType": "address",
              "name": "prevOwner",
              "type": "address"
            },
            {
              "internalType": "address",
              "name": "oldOwner",
              "type": "address"
            },
            {
              "internalType": "address",
              "name": "newOwner",
              "type": "address"
            }
          ],
          "name": "swapOwner",
          "outputs": [],
          "stateMutability": "nonpayable",
          "type": "function"
        }
      ],
      "devdoc": {
        "author": "Richard Meissner - <richard@gnosis.pm>Andreas Bigger <bigger@usc.edu>",
        "kind": "dev",
        "methods": {
          "addOwnerWithThreshold(address,uint256)": {
            "details": "Allows to add a new owner to the Safe and update the threshold at the same time.      This can only be done via a Safe transaction.",
            "params": {
              "_threshold": "New threshold.",
              "owner": "New owner address."
            }
          },
          "changeThreshold(uint256)": {
            "details": "Allows to update the number of required confirmations by Safe owners.      This can only be done via a Safe transaction.",
            "params": {
              "_threshold": "New threshold."
            }
          },
          "getDataHash(bytes)": {
            "details": "Returns hash of data encoding owner replacement.",
            "params": {
              "data": "Data payload."
            },
            "returns": {
              "_0": "Data hash."
            }
          },
          "getOwners()": {
            "details": "Returns array of owners.",
            "returns": {
              "_0": "Array of Safe owners."
            }
          },
          "inherit(address,address,address,address)": {
            "details": "Returns if Safe transaction is a valid owner replacement transaction.",
            "params": {
              "newOwner": "New owner address.",
              "oldOwner": "Owner address to be replaced.",
              "prevOwner": "Owner that pointed to the owner to be replaced in the linked list"
            }
          },
          "reconfigure(address[])": {
            "details": "Setup function sets initial storage of contract.",
            "params": {
              "_inheritants": "List of inheritants' addresses."
            }
          },
          "removeInheritance()": {
            "details": "Remove inheritance"
          },
          "removeOwner(address,address,uint256)": {
            "details": "Allows to remove an owner from the Safe and update the threshold at the same time.      This can only be done via a Safe transaction.",
            "params": {
              "_threshold": "New threshold.",
              "owner": "Owner address to be removed.",
              "prevOwner": "Owner that pointed to the owner to be removed in the linked list"
            }
          },
          "setup(address[])": {
            "details": "Setup function sets initial storage of contract.",
            "params": {
              "_inheritants": "List of inheritants' addresses"
            }
          },
          "swapOwner(address,address,address)": {
            "details": "Allows to swap/replace an owner from the Safe with another address.      This can only be done via a Safe transaction.",
            "params": {
              "newOwner": "New owner address.",
              "oldOwner": "Owner address to be replaced.",
              "prevOwner": "Owner that pointed to the owner to be replaced in the linked list"
            }
          }
        },
        "title": "InheritanceModule",
        "version": 1
      },
      "evm": {
        "bytecode": {
          "linkReferences": {},
          "object": "608060405234801561001057600080fd5b50611542806100206000396000f3fe608060405234801561001057600080fd5b50600436106101515760003560e01c8063a3f4df7e116100cd578063e75235b811610081578063f8dc5dd911610066578063f8dc5dd91461059a578063f904b897146105d0578063ffa1ad74146105f657610151565b8063e75235b814610554578063ea4717231461055c57610151565b8063bd5b853b116100b2578063bd5b853b1461045c578063e318b52b146104ff578063e52cb36a1461053757610151565b8063a3f4df7e14610339578063ae68b056146103b657610151565b806343abf5fe11610124578063694e80c311610109578063694e80c3146102bc5780639bdaf65b146102d9578063a0e67e2b146102e157610151565b806343abf5fe146102115780636518cc9a1461021957610151565b806309917101146101565780630d582f131461018f5780631db61b54146101bd5780632f54bf6e146101d7575b600080fd5b6101736004803603602081101561016c57600080fd5b50356105fe565b604080516001600160a01b039092168252519081900360200190f35b6101bb600480360360408110156101a557600080fd5b506001600160a01b038135169060200135610625565b005b6101c56107b0565b60408051918252519081900360200190f35b6101fd600480360360208110156101ed57600080fd5b50356001600160a01b03166107d4565b604080519115158252519081900360200190f35b6101c561080f565b6101bb6004803603602081101561022f57600080fd5b81019060208101813564010000000081111561024a57600080fd5b82018360208201111561025c57600080fd5b8035906020019184602083028401116401000000008311171561027e57600080fd5b919080806020026020016040519081016040528093929190818152602001838360200280828437600092019190915250929550610833945050505050565b6101bb600480360360208110156102d257600080fd5b5035610896565b6101bb61096e565b6102e96109e2565b60408051602080825283518183015283519192839290830191858101910280838360005b8381101561032557818101518382015260200161030d565b505050509050019250505060405180910390f35b610341610ac4565b6040805160208082528351818301528351919283929083019185019080838360005b8381101561037b578181015183820152602001610363565b50505050905090810190601f1680156103a85780820380516001836020036101000a031916815260200191505b509250505060405180910390f35b6101c5600480360360208110156103cc57600080fd5b8101906020810181356401000000008111156103e757600080fd5b8201836020820111156103f957600080fd5b8035906020019184600183028401116401000000008311171561041b57600080fd5b91908080601f016020809104026020016040519081016040528093929190818152602001838380828437600092019190915250929550610afd945050505050565b6101bb6004803603602081101561047257600080fd5b81019060208101813564010000000081111561048d57600080fd5b82018360208201111561049f57600080fd5b803590602001918460208302840111640100000000831117156104c157600080fd5b919080806020026020016040519081016040528093929190818152602001838360200280828437600092019190915250929550610b08945050505050565b6101bb6004803603606081101561051557600080fd5b506001600160a01b038135811691602081013582169160409091013516610b22565b6101fd6004803603602081101561054d57600080fd5b5035610d7a565b6101c5610d8f565b6101bb6004803603608081101561057257600080fd5b506001600160a01b038135811691602081013582169160408201358116916060013516610d95565b6101bb600480360360608110156105b057600080fd5b506001600160a01b03813581169160208101359091169060400135611095565b6101fd600480360360208110156105e657600080fd5b50356001600160a01b0316611238565b61034161124d565b6003818154811061060b57fe5b6000918252602090912001546001600160a01b0316905081565b61062d611286565b6001600160a01b0382161580159061064f57506001600160a01b038216600114155b801561066457506001600160a01b0382163014155b61069d576040805162461bcd60e51b8152602060048201526005602482015264475332303360d81b604482015290519081900360640190fd5b6001600160a01b0382811660009081526020819052604090205416156106f2576040805162461bcd60e51b815260206004820152600560248201526411d4cc8c0d60da1b604482015290519081900360640190fd5b600060208181527fada5013122d395ba3c54772283fb069b10426056ef8ca54750cb9bb552a59e7d80546001600160a01b03868116808652604080872080549390941673ffffffffffffffffffffffffffffffffffffffff19938416179093556001958690528354909116811790925583548401909355825190815291517f9465fa0c962cc76958e6373a993326400c1c94f8be2fe3a952adfa7f60b2ea269281900390910190a180600254146107ac576107ac81610896565b5050565b7f47e79534a245952e8b16893a336b85a3d9ea9fa8c573f3d803afb92a7946921881565b60006001600160a01b03821660011480159061080957506001600160a01b038281166000908152602081905260409020541615155b92915050565b7f80b006280932094e7cc965863eb5118dc07e5d272c6670c4a7c87299e04fceeb81565b61083b611286565b60005b6003548110156108895760006003828154811061085757fe5b60009182526020808320909101546001600160a01b031682526004905260409020805460ff191690555060010161083e565b50610893816112dc565b50565b61089e611286565b6001548111156108dd576040805162461bcd60e51b8152602060048201526005602482015264475332303160d81b604482015290519081900360640190fd5b6001811015610933576040805162461bcd60e51b815260206004820152600560248201527f4753323032000000000000000000000000000000000000000000000000000000604482015290519081900360640190fd5b60028190556040805182815290517f610f7ff2b304ae8903c3de74c60c6ab1f7d6226b3f52c5161905bb5ad4039c939181900360200190a150565b610976611286565b60005b6003548110156109c45760006003828154811061099257fe5b60009182526020808320909101546001600160a01b031682526004905260409020805460ff1916905550600101610979565b506040805160008152602081019182905251610893916003916113ee565b60608060015467ffffffffffffffff811180156109fe57600080fd5b50604051908082528060200260200182016040528015610a28578160200160208202803683370190505b506001600090815260208190527fada5013122d395ba3c54772283fb069b10426056ef8ca54750cb9bb552a59e7d54919250906001600160a01b03165b6001600160a01b038116600114610abc5780838381518110610a8357fe5b6001600160a01b039283166020918202929092018101919091529181166000908152918290526040909120546001929092019116610a65565b509091505090565b6040518060400160405280601281526020017f496e6865726974616e6365204d6f64756c65000000000000000000000000000081525081565b805160209091012090565b610b1933610b14610d8f565b610625565b610893816112dc565b610b2a611286565b6001600160a01b03811615801590610b4c57506001600160a01b038116600114155b8015610b6157506001600160a01b0381163014155b610b9a576040805162461bcd60e51b8152602060048201526005602482015264475332303360d81b604482015290519081900360640190fd5b6001600160a01b038181166000908152602081905260409020541615610bef576040805162461bcd60e51b815260206004820152600560248201526411d4cc8c0d60da1b604482015290519081900360640190fd5b6001600160a01b03821615801590610c1157506001600160a01b038216600114155b610c4a576040805162461bcd60e51b8152602060048201526005602482015264475332303360d81b604482015290519081900360640190fd5b6001600160a01b03838116600090815260208190526040902054811690831614610ca3576040805162461bcd60e51b8152602060048201526005602482015264475332303560d81b604482015290519081900360640190fd5b6001600160a01b038281166000818152602081815260408083208054878716808652838620805492891673ffffffffffffffffffffffffffffffffffffffff19938416179055968a16855282852080548216909717909655928490528254909416909155825191825291517ff8d49fc529812e9a7c5c50e69c20f0dccc0db8fa95c98bc58cc9a4f1c1299eaf929181900390910190a1604080516001600160a01b038316815290517f9465fa0c962cc76958e6373a993326400c1c94f8be2fe3a952adfa7f60b2ea269181900360200190a1505050565b60056020526000908152604090205460ff1681565b60025490565b3360009081526004602052604090205460ff16610de35760405162461bcd60e51b815260040180806020018281038252602b8152602001806114bf602b913960400191505060405180910390fd5b604080516001600160a01b038086166024830152808516604483015283166064808301919091528251808303909101815260849091019091526020810180517bffffffffffffffffffffffffffffffffffffffffffffffffffffffff167fe318b52b000000000000000000000000000000000000000000000000000000001790526000610e6f82610afd565b60008181526005602052604090205490915060ff1615610ed6576040805162461bcd60e51b815260206004820152601d60248201527f496e6865726974616e636520616c72656164792065786563757465642e000000604482015290519081900360640190fd5b610ede6113e9565b610f195760405162461bcd60e51b81526004018080602001828103825260248152602001806114766024913960400191505060405180910390fd5b600081815260056020526040808220805460ff19166001179055517f468721a70000000000000000000000000000000000000000000000000000000081526001600160a01b0388166004820181815260248301849052909263468721a7928a9287918391906044810190606401838152602001828103825284818151815260200191508051906020019080838360005b83811015610fc1578181015183820152602001610fa9565b50505050905090810190601f168015610fee5780820380516001836020036101000a031916815260200191505b5095505050505050602060405180830381600087803b15801561101057600080fd5b505af1158015611024573d6000803e3d6000fd5b505050506040513d602081101561103a57600080fd5b505161108d576040805162461bcd60e51b815260206004820152601d60248201527f436f756c64206e6f74206578656375746520696e6865726974616e6365000000604482015290519081900360640190fd5b505050505050565b61109d611286565b80600180540310156110de576040805162461bcd60e51b8152602060048201526005602482015264475332303160d81b604482015290519081900360640190fd5b6001600160a01b0382161580159061110057506001600160a01b038216600114155b611139576040805162461bcd60e51b8152602060048201526005602482015264475332303360d81b604482015290519081900360640190fd5b6001600160a01b03838116600090815260208190526040902054811690831614611192576040805162461bcd60e51b8152602060048201526005602482015264475332303560d81b604482015290519081900360640190fd5b6001600160a01b038281166000818152602081815260408083208054898716855282852080549190971673ffffffffffffffffffffffffffffffffffffffff199182161790965592849052825490941690915560018054600019019055825191825291517ff8d49fc529812e9a7c5c50e69c20f0dccc0db8fa95c98bc58cc9a4f1c1299eaf929181900390910190a180600254146112335761123381610896565b505050565b60046020526000908152604090205460ff1681565b6040518060400160405280600581526020017f302e312e3000000000000000000000000000000000000000000000000000000081525081565b3330146112da576040805162461bcd60e51b815260206004820152600560248201527f4753303331000000000000000000000000000000000000000000000000000000604482015290519081900360640190fd5b565b60005b81518110156113d55760008282815181106112f657fe5b6020026020010151905060006001600160a01b0316816001600160a01b031614156113525760405162461bcd60e51b81526004018080602001828103825260238152602001806114ea6023913960400191505060405180910390fd5b6001600160a01b03811660009081526004602052604090205460ff16156113aa5760405162461bcd60e51b815260040180806020018281038252602581526020018061149a6025913960400191505060405180910390fd5b6001600160a01b03166000908152600460205260409020805460ff19166001908117909155016112df565b5080516107ac9060039060208401906113ee565b600090565b828054828255906000526020600020908101928215611450579160200282015b82811115611450578251825473ffffffffffffffffffffffffffffffffffffffff19166001600160a01b0390911617825560209092019160019091019061140e565b5061145c929150611460565b5090565b5b8082111561145c576000815560010161146156fe41637469766520736166652120496e6865726974616e636520646973616c6c6f7765642e4475706c696361746520696e6865726974616e7420616464726573732070726f76696465644d6574686f642063616e206f6e6c792062652063616c6c656420627920616e20696e6865726974616e7421496e76616c696420696e6865726974616e7420616464726573732070726f7669646564a26469706673582212207545279ac0735f9e0c89b5964f2b0abc94044949c1919b1f19b58ba5b4f7cbaf64736f6c63430007030033",
          "opcodes": "PUSH1 0x80 PUSH1 0x40 MSTORE CALLVALUE DUP1 ISZERO PUSH2 0x10 JUMPI PUSH1 0x0 DUP1 REVERT JUMPDEST POP PUSH2 0x1542 DUP1 PUSH2 0x20 PUSH1 0x0 CODECOPY PUSH1 0x0 RETURN INVALID PUSH1 0x80 PUSH1 0x40 MSTORE CALLVALUE DUP1 ISZERO PUSH2 0x10 JUMPI PUSH1 0x0 DUP1 REVERT JUMPDEST POP PUSH1 0x4 CALLDATASIZE LT PUSH2 0x151 JUMPI PUSH1 0x0 CALLDATALOAD PUSH1 0xE0 SHR DUP1 PUSH4 0xA3F4DF7E GT PUSH2 0xCD JUMPI DUP1 PUSH4 0xE75235B8 GT PUSH2 0x81 JUMPI DUP1 PUSH4 0xF8DC5DD9 GT PUSH2 0x66 JUMPI DUP1 PUSH4 0xF8DC5DD9 EQ PUSH2 0x59A JUMPI DUP1 PUSH4 0xF904B897 EQ PUSH2 0x5D0 JUMPI DUP1 PUSH4 0xFFA1AD74 EQ PUSH2 0x5F6 JUMPI PUSH2 0x151 JUMP JUMPDEST DUP1 PUSH4 0xE75235B8 EQ PUSH2 0x554 JUMPI DUP1 PUSH4 0xEA471723 EQ PUSH2 0x55C JUMPI PUSH2 0x151 JUMP JUMPDEST DUP1 PUSH4 0xBD5B853B GT PUSH2 0xB2 JUMPI DUP1 PUSH4 0xBD5B853B EQ PUSH2 0x45C JUMPI DUP1 PUSH4 0xE318B52B EQ PUSH2 0x4FF JUMPI DUP1 PUSH4 0xE52CB36A EQ PUSH2 0x537 JUMPI PUSH2 0x151 JUMP JUMPDEST DUP1 PUSH4 0xA3F4DF7E EQ PUSH2 0x339 JUMPI DUP1 PUSH4 0xAE68B056 EQ PUSH2 0x3B6 JUMPI PUSH2 0x151 JUMP JUMPDEST DUP1 PUSH4 0x43ABF5FE GT PUSH2 0x124 JUMPI DUP1 PUSH4 0x694E80C3 GT PUSH2 0x109 JUMPI DUP1 PUSH4 0x694E80C3 EQ PUSH2 0x2BC JUMPI DUP1 PUSH4 0x9BDAF65B EQ PUSH2 0x2D9 JUMPI DUP1 PUSH4 0xA0E67E2B EQ PUSH2 0x2E1 JUMPI PUSH2 0x151 JUMP JUMPDEST DUP1 PUSH4 0x43ABF5FE EQ PUSH2 0x211 JUMPI DUP1 PUSH4 0x6518CC9A EQ PUSH2 0x219 JUMPI PUSH2 0x151 JUMP JUMPDEST DUP1 PUSH4 0x9917101 EQ PUSH2 0x156 JUMPI DUP1 PUSH4 0xD582F13 EQ PUSH2 0x18F JUMPI DUP1 PUSH4 0x1DB61B54 EQ PUSH2 0x1BD JUMPI DUP1 PUSH4 0x2F54BF6E EQ PUSH2 0x1D7 JUMPI JUMPDEST PUSH1 0x0 DUP1 REVERT JUMPDEST PUSH2 0x173 PUSH1 0x4 DUP1 CALLDATASIZE SUB PUSH1 0x20 DUP2 LT ISZERO PUSH2 0x16C JUMPI PUSH1 0x0 DUP1 REVERT JUMPDEST POP CALLDATALOAD PUSH2 0x5FE JUMP JUMPDEST PUSH1 0x40 DUP1 MLOAD PUSH1 0x1 PUSH1 0x1 PUSH1 0xA0 SHL SUB SWAP1 SWAP3 AND DUP3 MSTORE MLOAD SWAP1 DUP2 SWAP1 SUB PUSH1 0x20 ADD SWAP1 RETURN JUMPDEST PUSH2 0x1BB PUSH1 0x4 DUP1 CALLDATASIZE SUB PUSH1 0x40 DUP2 LT ISZERO PUSH2 0x1A5 JUMPI PUSH1 0x0 DUP1 REVERT JUMPDEST POP PUSH1 0x1 PUSH1 0x1 PUSH1 0xA0 SHL SUB DUP2 CALLDATALOAD AND SWAP1 PUSH1 0x20 ADD CALLDATALOAD PUSH2 0x625 JUMP JUMPDEST STOP JUMPDEST PUSH2 0x1C5 PUSH2 0x7B0 JUMP JUMPDEST PUSH1 0x40 DUP1 MLOAD SWAP2 DUP3 MSTORE MLOAD SWAP1 DUP2 SWAP1 SUB PUSH1 0x20 ADD SWAP1 RETURN JUMPDEST PUSH2 0x1FD PUSH1 0x4 DUP1 CALLDATASIZE SUB PUSH1 0x20 DUP2 LT ISZERO PUSH2 0x1ED JUMPI PUSH1 0x0 DUP1 REVERT JUMPDEST POP CALLDATALOAD PUSH1 0x1 PUSH1 0x1 PUSH1 0xA0 SHL SUB AND PUSH2 0x7D4 JUMP JUMPDEST PUSH1 0x40 DUP1 MLOAD SWAP2 ISZERO ISZERO DUP3 MSTORE MLOAD SWAP1 DUP2 SWAP1 SUB PUSH1 0x20 ADD SWAP1 RETURN JUMPDEST PUSH2 0x1C5 PUSH2 0x80F JUMP JUMPDEST PUSH2 0x1BB PUSH1 0x4 DUP1 CALLDATASIZE SUB PUSH1 0x20 DUP2 LT ISZERO PUSH2 0x22F JUMPI PUSH1 0x0 DUP1 REVERT JUMPDEST DUP2 ADD SWAP1 PUSH1 0x20 DUP2 ADD DUP2 CALLDATALOAD PUSH5 0x100000000 DUP2 GT ISZERO PUSH2 0x24A JUMPI PUSH1 0x0 DUP1 REVERT JUMPDEST DUP3 ADD DUP4 PUSH1 0x20 DUP3 ADD GT ISZERO PUSH2 0x25C JUMPI PUSH1 0x0 DUP1 REVERT JUMPDEST DUP1 CALLDATALOAD SWAP1 PUSH1 0x20 ADD SWAP2 DUP5 PUSH1 0x20 DUP4 MUL DUP5 ADD GT PUSH5 0x100000000 DUP4 GT OR ISZERO PUSH2 0x27E JUMPI PUSH1 0x0 DUP1 REVERT JUMPDEST SWAP2 SWAP1 DUP1 DUP1 PUSH1 0x20 MUL PUSH1 0x20 ADD PUSH1 0x40 MLOAD SWAP1 DUP2 ADD PUSH1 0x40 MSTORE DUP1 SWAP4 SWAP3 SWAP2 SWAP1 DUP2 DUP2 MSTORE PUSH1 0x20 ADD DUP4 DUP4 PUSH1 0x20 MUL DUP1 DUP3 DUP5 CALLDATACOPY PUSH1 0x0 SWAP3 ADD SWAP2 SWAP1 SWAP2 MSTORE POP SWAP3 SWAP6 POP PUSH2 0x833 SWAP5 POP POP POP POP POP JUMP JUMPDEST PUSH2 0x1BB PUSH1 0x4 DUP1 CALLDATASIZE SUB PUSH1 0x20 DUP2 LT ISZERO PUSH2 0x2D2 JUMPI PUSH1 0x0 DUP1 REVERT JUMPDEST POP CALLDATALOAD PUSH2 0x896 JUMP JUMPDEST PUSH2 0x1BB PUSH2 0x96E JUMP JUMPDEST PUSH2 0x2E9 PUSH2 0x9E2 JUMP JUMPDEST PUSH1 0x40 DUP1 MLOAD PUSH1 0x20 DUP1 DUP3 MSTORE DUP4 MLOAD DUP2 DUP4 ADD MSTORE DUP4 MLOAD SWAP2 SWAP3 DUP4 SWAP3 SWAP1 DUP4 ADD SWAP2 DUP6 DUP2 ADD SWAP2 MUL DUP1 DUP4 DUP4 PUSH1 0x0 JUMPDEST DUP4 DUP2 LT ISZERO PUSH2 0x325 JUMPI DUP2 DUP2 ADD MLOAD DUP4 DUP3 ADD MSTORE PUSH1 0x20 ADD PUSH2 0x30D JUMP JUMPDEST POP POP POP POP SWAP1 POP ADD SWAP3 POP POP POP PUSH1 0x40 MLOAD DUP1 SWAP2 SUB SWAP1 RETURN JUMPDEST PUSH2 0x341 PUSH2 0xAC4 JUMP JUMPDEST PUSH1 0x40 DUP1 MLOAD PUSH1 0x20 DUP1 DUP3 MSTORE DUP4 MLOAD DUP2 DUP4 ADD MSTORE DUP4 MLOAD SWAP2 SWAP3 DUP4 SWAP3 SWAP1 DUP4 ADD SWAP2 DUP6 ADD SWAP1 DUP1 DUP4 DUP4 PUSH1 0x0 JUMPDEST DUP4 DUP2 LT ISZERO PUSH2 0x37B JUMPI DUP2 DUP2 ADD MLOAD DUP4 DUP3 ADD MSTORE PUSH1 0x20 ADD PUSH2 0x363 JUMP JUMPDEST POP POP POP POP SWAP1 POP SWAP1 DUP2 ADD SWAP1 PUSH1 0x1F AND DUP1 ISZERO PUSH2 0x3A8 JUMPI DUP1 DUP3 SUB DUP1 MLOAD PUSH1 0x1 DUP4 PUSH1 0x20 SUB PUSH2 0x100 EXP SUB NOT AND DUP2 MSTORE PUSH1 0x20 ADD SWAP2 POP JUMPDEST POP SWAP3 POP POP POP PUSH1 0x40 MLOAD DUP1 SWAP2 SUB SWAP1 RETURN JUMPDEST PUSH2 0x1C5 PUSH1 0x4 DUP1 CALLDATASIZE SUB PUSH1 0x20 DUP2 LT ISZERO PUSH2 0x3CC JUMPI PUSH1 0x0 DUP1 REVERT JUMPDEST DUP2 ADD SWAP1 PUSH1 0x20 DUP2 ADD DUP2 CALLDATALOAD PUSH5 0x100000000 DUP2 GT ISZERO PUSH2 0x3E7 JUMPI PUSH1 0x0 DUP1 REVERT JUMPDEST DUP3 ADD DUP4 PUSH1 0x20 DUP3 ADD GT ISZERO PUSH2 0x3F9 JUMPI PUSH1 0x0 DUP1 REVERT JUMPDEST DUP1 CALLDATALOAD SWAP1 PUSH1 0x20 ADD SWAP2 DUP5 PUSH1 0x1 DUP4 MUL DUP5 ADD GT PUSH5 0x100000000 DUP4 GT OR ISZERO PUSH2 0x41B JUMPI PUSH1 0x0 DUP1 REVERT JUMPDEST SWAP2 SWAP1 DUP1 DUP1 PUSH1 0x1F ADD PUSH1 0x20 DUP1 SWAP2 DIV MUL PUSH1 0x20 ADD PUSH1 0x40 MLOAD SWAP1 DUP2 ADD PUSH1 0x40 MSTORE DUP1 SWAP4 SWAP3 SWAP2 SWAP1 DUP2 DUP2 MSTORE PUSH1 0x20 ADD DUP4 DUP4 DUP1 DUP3 DUP5 CALLDATACOPY PUSH1 0x0 SWAP3 ADD SWAP2 SWAP1 SWAP2 MSTORE POP SWAP3 SWAP6 POP PUSH2 0xAFD SWAP5 POP POP POP POP POP JUMP JUMPDEST PUSH2 0x1BB PUSH1 0x4 DUP1 CALLDATASIZE SUB PUSH1 0x20 DUP2 LT ISZERO PUSH2 0x472 JUMPI PUSH1 0x0 DUP1 REVERT JUMPDEST DUP2 ADD SWAP1 PUSH1 0x20 DUP2 ADD DUP2 CALLDATALOAD PUSH5 0x100000000 DUP2 GT ISZERO PUSH2 0x48D JUMPI PUSH1 0x0 DUP1 REVERT JUMPDEST DUP3 ADD DUP4 PUSH1 0x20 DUP3 ADD GT ISZERO PUSH2 0x49F JUMPI PUSH1 0x0 DUP1 REVERT JUMPDEST DUP1 CALLDATALOAD SWAP1 PUSH1 0x20 ADD SWAP2 DUP5 PUSH1 0x20 DUP4 MUL DUP5 ADD GT PUSH5 0x100000000 DUP4 GT OR ISZERO PUSH2 0x4C1 JUMPI PUSH1 0x0 DUP1 REVERT JUMPDEST SWAP2 SWAP1 DUP1 DUP1 PUSH1 0x20 MUL PUSH1 0x20 ADD PUSH1 0x40 MLOAD SWAP1 DUP2 ADD PUSH1 0x40 MSTORE DUP1 SWAP4 SWAP3 SWAP2 SWAP1 DUP2 DUP2 MSTORE PUSH1 0x20 ADD DUP4 DUP4 PUSH1 0x20 MUL DUP1 DUP3 DUP5 CALLDATACOPY PUSH1 0x0 SWAP3 ADD SWAP2 SWAP1 SWAP2 MSTORE POP SWAP3 SWAP6 POP PUSH2 0xB08 SWAP5 POP POP POP POP POP JUMP JUMPDEST PUSH2 0x1BB PUSH1 0x4 DUP1 CALLDATASIZE SUB PUSH1 0x60 DUP2 LT ISZERO PUSH2 0x515 JUMPI PUSH1 0x0 DUP1 REVERT JUMPDEST POP PUSH1 0x1 PUSH1 0x1 PUSH1 0xA0 SHL SUB DUP2 CALLDATALOAD DUP2 AND SWAP2 PUSH1 0x20 DUP2 ADD CALLDATALOAD DUP3 AND SWAP2 PUSH1 0x40 SWAP1 SWAP2 ADD CALLDATALOAD AND PUSH2 0xB22 JUMP JUMPDEST PUSH2 0x1FD PUSH1 0x4 DUP1 CALLDATASIZE SUB PUSH1 0x20 DUP2 LT ISZERO PUSH2 0x54D JUMPI PUSH1 0x0 DUP1 REVERT JUMPDEST POP CALLDATALOAD PUSH2 0xD7A JUMP JUMPDEST PUSH2 0x1C5 PUSH2 0xD8F JUMP JUMPDEST PUSH2 0x1BB PUSH1 0x4 DUP1 CALLDATASIZE SUB PUSH1 0x80 DUP2 LT ISZERO PUSH2 0x572 JUMPI PUSH1 0x0 DUP1 REVERT JUMPDEST POP PUSH1 0x1 PUSH1 0x1 PUSH1 0xA0 SHL SUB DUP2 CALLDATALOAD DUP2 AND SWAP2 PUSH1 0x20 DUP2 ADD CALLDATALOAD DUP3 AND SWAP2 PUSH1 0x40 DUP3 ADD CALLDATALOAD DUP2 AND SWAP2 PUSH1 0x60 ADD CALLDATALOAD AND PUSH2 0xD95 JUMP JUMPDEST PUSH2 0x1BB PUSH1 0x4 DUP1 CALLDATASIZE SUB PUSH1 0x60 DUP2 LT ISZERO PUSH2 0x5B0 JUMPI PUSH1 0x0 DUP1 REVERT JUMPDEST POP PUSH1 0x1 PUSH1 0x1 PUSH1 0xA0 SHL SUB DUP2 CALLDATALOAD DUP2 AND SWAP2 PUSH1 0x20 DUP2 ADD CALLDATALOAD SWAP1 SWAP2 AND SWAP1 PUSH1 0x40 ADD CALLDATALOAD PUSH2 0x1095 JUMP JUMPDEST PUSH2 0x1FD PUSH1 0x4 DUP1 CALLDATASIZE SUB PUSH1 0x20 DUP2 LT ISZERO PUSH2 0x5E6 JUMPI PUSH1 0x0 DUP1 REVERT JUMPDEST POP CALLDATALOAD PUSH1 0x1 PUSH1 0x1 PUSH1 0xA0 SHL SUB AND PUSH2 0x1238 JUMP JUMPDEST PUSH2 0x341 PUSH2 0x124D JUMP JUMPDEST PUSH1 0x3 DUP2 DUP2 SLOAD DUP2 LT PUSH2 0x60B JUMPI INVALID JUMPDEST PUSH1 0x0 SWAP2 DUP3 MSTORE PUSH1 0x20 SWAP1 SWAP2 KECCAK256 ADD SLOAD PUSH1 0x1 PUSH1 0x1 PUSH1 0xA0 SHL SUB AND SWAP1 POP DUP2 JUMP JUMPDEST PUSH2 0x62D PUSH2 0x1286 JUMP JUMPDEST PUSH1 0x1 PUSH1 0x1 PUSH1 0xA0 SHL SUB DUP3 AND ISZERO DUP1 ISZERO SWAP1 PUSH2 0x64F JUMPI POP PUSH1 0x1 PUSH1 0x1 PUSH1 0xA0 SHL SUB DUP3 AND PUSH1 0x1 EQ ISZERO JUMPDEST DUP1 ISZERO PUSH2 0x664 JUMPI POP PUSH1 0x1 PUSH1 0x1 PUSH1 0xA0 SHL SUB DUP3 AND ADDRESS EQ ISZERO JUMPDEST PUSH2 0x69D JUMPI PUSH1 0x40 DUP1 MLOAD PUSH3 0x461BCD PUSH1 0xE5 SHL DUP2 MSTORE PUSH1 0x20 PUSH1 0x4 DUP3 ADD MSTORE PUSH1 0x5 PUSH1 0x24 DUP3 ADD MSTORE PUSH5 0x4753323033 PUSH1 0xD8 SHL PUSH1 0x44 DUP3 ADD MSTORE SWAP1 MLOAD SWAP1 DUP2 SWAP1 SUB PUSH1 0x64 ADD SWAP1 REVERT JUMPDEST PUSH1 0x1 PUSH1 0x1 PUSH1 0xA0 SHL SUB DUP3 DUP2 AND PUSH1 0x0 SWAP1 DUP2 MSTORE PUSH1 0x20 DUP2 SWAP1 MSTORE PUSH1 0x40 SWAP1 KECCAK256 SLOAD AND ISZERO PUSH2 0x6F2 JUMPI PUSH1 0x40 DUP1 MLOAD PUSH3 0x461BCD PUSH1 0xE5 SHL DUP2 MSTORE PUSH1 0x20 PUSH1 0x4 DUP3 ADD MSTORE PUSH1 0x5 PUSH1 0x24 DUP3 ADD MSTORE PUSH5 0x11D4CC8C0D PUSH1 0xDA SHL PUSH1 0x44 DUP3 ADD MSTORE SWAP1 MLOAD SWAP1 DUP2 SWAP1 SUB PUSH1 0x64 ADD SWAP1 REVERT JUMPDEST PUSH1 0x0 PUSH1 0x20 DUP2 DUP2 MSTORE PUSH32 0xADA5013122D395BA3C54772283FB069B10426056EF8CA54750CB9BB552A59E7D DUP1 SLOAD PUSH1 0x1 PUSH1 0x1 PUSH1 0xA0 SHL SUB DUP7 DUP2 AND DUP1 DUP7 MSTORE PUSH1 0x40 DUP1 DUP8 KECCAK256 DUP1 SLOAD SWAP4 SWAP1 SWAP5 AND PUSH20 0xFFFFFFFFFFFFFFFFFFFFFFFFFFFFFFFFFFFFFFFF NOT SWAP4 DUP5 AND OR SWAP1 SWAP4 SSTORE PUSH1 0x1 SWAP6 DUP7 SWAP1 MSTORE DUP4 SLOAD SWAP1 SWAP2 AND DUP2 OR SWAP1 SWAP3 SSTORE DUP4 SLOAD DUP5 ADD SWAP1 SWAP4 SSTORE DUP3 MLOAD SWAP1 DUP2 MSTORE SWAP2 MLOAD PUSH32 0x9465FA0C962CC76958E6373A993326400C1C94F8BE2FE3A952ADFA7F60B2EA26 SWAP3 DUP2 SWAP1 SUB SWAP1 SWAP2 ADD SWAP1 LOG1 DUP1 PUSH1 0x2 SLOAD EQ PUSH2 0x7AC JUMPI PUSH2 0x7AC DUP2 PUSH2 0x896 JUMP JUMPDEST POP POP JUMP JUMPDEST PUSH32 0x47E79534A245952E8B16893A336B85A3D9EA9FA8C573F3D803AFB92A79469218 DUP2 JUMP JUMPDEST PUSH1 0x0 PUSH1 0x1 PUSH1 0x1 PUSH1 0xA0 SHL SUB DUP3 AND PUSH1 0x1 EQ DUP1 ISZERO SWAP1 PUSH2 0x809 JUMPI POP PUSH1 0x1 PUSH1 0x1 PUSH1 0xA0 SHL SUB DUP3 DUP2 AND PUSH1 0x0 SWAP1 DUP2 MSTORE PUSH1 0x20 DUP2 SWAP1 MSTORE PUSH1 0x40 SWAP1 KECCAK256 SLOAD AND ISZERO ISZERO JUMPDEST SWAP3 SWAP2 POP POP JUMP JUMPDEST PUSH32 0x80B006280932094E7CC965863EB5118DC07E5D272C6670C4A7C87299E04FCEEB DUP2 JUMP JUMPDEST PUSH2 0x83B PUSH2 0x1286 JUMP JUMPDEST PUSH1 0x0 JUMPDEST PUSH1 0x3 SLOAD DUP2 LT ISZERO PUSH2 0x889 JUMPI PUSH1 0x0 PUSH1 0x3 DUP3 DUP2 SLOAD DUP2 LT PUSH2 0x857 JUMPI INVALID JUMPDEST PUSH1 0x0 SWAP2 DUP3 MSTORE PUSH1 0x20 DUP1 DUP4 KECCAK256 SWAP1 SWAP2 ADD SLOAD PUSH1 0x1 PUSH1 0x1 PUSH1 0xA0 SHL SUB AND DUP3 MSTORE PUSH1 0x4 SWAP1 MSTORE PUSH1 0x40 SWAP1 KECCAK256 DUP1 SLOAD PUSH1 0xFF NOT AND SWAP1 SSTORE POP PUSH1 0x1 ADD PUSH2 0x83E JUMP JUMPDEST POP PUSH2 0x893 DUP2 PUSH2 0x12DC JUMP JUMPDEST POP JUMP JUMPDEST PUSH2 0x89E PUSH2 0x1286 JUMP JUMPDEST PUSH1 0x1 SLOAD DUP2 GT ISZERO PUSH2 0x8DD JUMPI PUSH1 0x40 DUP1 MLOAD PUSH3 0x461BCD PUSH1 0xE5 SHL DUP2 MSTORE PUSH1 0x20 PUSH1 0x4 DUP3 ADD MSTORE PUSH1 0x5 PUSH1 0x24 DUP3 ADD MSTORE PUSH5 0x4753323031 PUSH1 0xD8 SHL PUSH1 0x44 DUP3 ADD MSTORE SWAP1 MLOAD SWAP1 DUP2 SWAP1 SUB PUSH1 0x64 ADD SWAP1 REVERT JUMPDEST PUSH1 0x1 DUP2 LT ISZERO PUSH2 0x933 JUMPI PUSH1 0x40 DUP1 MLOAD PUSH3 0x461BCD PUSH1 0xE5 SHL DUP2 MSTORE PUSH1 0x20 PUSH1 0x4 DUP3 ADD MSTORE PUSH1 0x5 PUSH1 0x24 DUP3 ADD MSTORE PUSH32 0x4753323032000000000000000000000000000000000000000000000000000000 PUSH1 0x44 DUP3 ADD MSTORE SWAP1 MLOAD SWAP1 DUP2 SWAP1 SUB PUSH1 0x64 ADD SWAP1 REVERT JUMPDEST PUSH1 0x2 DUP2 SWAP1 SSTORE PUSH1 0x40 DUP1 MLOAD DUP3 DUP2 MSTORE SWAP1 MLOAD PUSH32 0x610F7FF2B304AE8903C3DE74C60C6AB1F7D6226B3F52C5161905BB5AD4039C93 SWAP2 DUP2 SWAP1 SUB PUSH1 0x20 ADD SWAP1 LOG1 POP JUMP JUMPDEST PUSH2 0x976 PUSH2 0x1286 JUMP JUMPDEST PUSH1 0x0 JUMPDEST PUSH1 0x3 SLOAD DUP2 LT ISZERO PUSH2 0x9C4 JUMPI PUSH1 0x0 PUSH1 0x3 DUP3 DUP2 SLOAD DUP2 LT PUSH2 0x992 JUMPI INVALID JUMPDEST PUSH1 0x0 SWAP2 DUP3 MSTORE PUSH1 0x20 DUP1 DUP4 KECCAK256 SWAP1 SWAP2 ADD SLOAD PUSH1 0x1 PUSH1 0x1 PUSH1 0xA0 SHL SUB AND DUP3 MSTORE PUSH1 0x4 SWAP1 MSTORE PUSH1 0x40 SWAP1 KECCAK256 DUP1 SLOAD PUSH1 0xFF NOT AND SWAP1 SSTORE POP PUSH1 0x1 ADD PUSH2 0x979 JUMP JUMPDEST POP PUSH1 0x40 DUP1 MLOAD PUSH1 0x0 DUP2 MSTORE PUSH1 0x20 DUP2 ADD SWAP2 DUP3 SWAP1 MSTORE MLOAD PUSH2 0x893 SWAP2 PUSH1 0x3 SWAP2 PUSH2 0x13EE JUMP JUMPDEST PUSH1 0x60 DUP1 PUSH1 0x1 SLOAD PUSH8 0xFFFFFFFFFFFFFFFF DUP2 GT DUP1 ISZERO PUSH2 0x9FE JUMPI PUSH1 0x0 DUP1 REVERT JUMPDEST POP PUSH1 0x40 MLOAD SWAP1 DUP1 DUP3 MSTORE DUP1 PUSH1 0x20 MUL PUSH1 0x20 ADD DUP3 ADD PUSH1 0x40 MSTORE DUP1 ISZERO PUSH2 0xA28 JUMPI DUP2 PUSH1 0x20 ADD PUSH1 0x20 DUP3 MUL DUP1 CALLDATASIZE DUP4 CALLDATACOPY ADD SWAP1 POP JUMPDEST POP PUSH1 0x1 PUSH1 0x0 SWAP1 DUP2 MSTORE PUSH1 0x20 DUP2 SWAP1 MSTORE PUSH32 0xADA5013122D395BA3C54772283FB069B10426056EF8CA54750CB9BB552A59E7D SLOAD SWAP2 SWAP3 POP SWAP1 PUSH1 0x1 PUSH1 0x1 PUSH1 0xA0 SHL SUB AND JUMPDEST PUSH1 0x1 PUSH1 0x1 PUSH1 0xA0 SHL SUB DUP2 AND PUSH1 0x1 EQ PUSH2 0xABC JUMPI DUP1 DUP4 DUP4 DUP2 MLOAD DUP2 LT PUSH2 0xA83 JUMPI INVALID JUMPDEST PUSH1 0x1 PUSH1 0x1 PUSH1 0xA0 SHL SUB SWAP3 DUP4 AND PUSH1 0x20 SWAP2 DUP3 MUL SWAP3 SWAP1 SWAP3 ADD DUP2 ADD SWAP2 SWAP1 SWAP2 MSTORE SWAP2 DUP2 AND PUSH1 0x0 SWAP1 DUP2 MSTORE SWAP2 DUP3 SWAP1 MSTORE PUSH1 0x40 SWAP1 SWAP2 KECCAK256 SLOAD PUSH1 0x1 SWAP3 SWAP1 SWAP3 ADD SWAP2 AND PUSH2 0xA65 JUMP JUMPDEST POP SWAP1 SWAP2 POP POP SWAP1 JUMP JUMPDEST PUSH1 0x40 MLOAD DUP1 PUSH1 0x40 ADD PUSH1 0x40 MSTORE DUP1 PUSH1 0x12 DUP2 MSTORE PUSH1 0x20 ADD PUSH32 0x496E6865726974616E6365204D6F64756C650000000000000000000000000000 DUP2 MSTORE POP DUP2 JUMP JUMPDEST DUP1 MLOAD PUSH1 0x20 SWAP1 SWAP2 ADD KECCAK256 SWAP1 JUMP JUMPDEST PUSH2 0xB19 CALLER PUSH2 0xB14 PUSH2 0xD8F JUMP JUMPDEST PUSH2 0x625 JUMP JUMPDEST PUSH2 0x893 DUP2 PUSH2 0x12DC JUMP JUMPDEST PUSH2 0xB2A PUSH2 0x1286 JUMP JUMPDEST PUSH1 0x1 PUSH1 0x1 PUSH1 0xA0 SHL SUB DUP2 AND ISZERO DUP1 ISZERO SWAP1 PUSH2 0xB4C JUMPI POP PUSH1 0x1 PUSH1 0x1 PUSH1 0xA0 SHL SUB DUP2 AND PUSH1 0x1 EQ ISZERO JUMPDEST DUP1 ISZERO PUSH2 0xB61 JUMPI POP PUSH1 0x1 PUSH1 0x1 PUSH1 0xA0 SHL SUB DUP2 AND ADDRESS EQ ISZERO JUMPDEST PUSH2 0xB9A JUMPI PUSH1 0x40 DUP1 MLOAD PUSH3 0x461BCD PUSH1 0xE5 SHL DUP2 MSTORE PUSH1 0x20 PUSH1 0x4 DUP3 ADD MSTORE PUSH1 0x5 PUSH1 0x24 DUP3 ADD MSTORE PUSH5 0x4753323033 PUSH1 0xD8 SHL PUSH1 0x44 DUP3 ADD MSTORE SWAP1 MLOAD SWAP1 DUP2 SWAP1 SUB PUSH1 0x64 ADD SWAP1 REVERT JUMPDEST PUSH1 0x1 PUSH1 0x1 PUSH1 0xA0 SHL SUB DUP2 DUP2 AND PUSH1 0x0 SWAP1 DUP2 MSTORE PUSH1 0x20 DUP2 SWAP1 MSTORE PUSH1 0x40 SWAP1 KECCAK256 SLOAD AND ISZERO PUSH2 0xBEF JUMPI PUSH1 0x40 DUP1 MLOAD PUSH3 0x461BCD PUSH1 0xE5 SHL DUP2 MSTORE PUSH1 0x20 PUSH1 0x4 DUP3 ADD MSTORE PUSH1 0x5 PUSH1 0x24 DUP3 ADD MSTORE PUSH5 0x11D4CC8C0D PUSH1 0xDA SHL PUSH1 0x44 DUP3 ADD MSTORE SWAP1 MLOAD SWAP1 DUP2 SWAP1 SUB PUSH1 0x64 ADD SWAP1 REVERT JUMPDEST PUSH1 0x1 PUSH1 0x1 PUSH1 0xA0 SHL SUB DUP3 AND ISZERO DUP1 ISZERO SWAP1 PUSH2 0xC11 JUMPI POP PUSH1 0x1 PUSH1 0x1 PUSH1 0xA0 SHL SUB DUP3 AND PUSH1 0x1 EQ ISZERO JUMPDEST PUSH2 0xC4A JUMPI PUSH1 0x40 DUP1 MLOAD PUSH3 0x461BCD PUSH1 0xE5 SHL DUP2 MSTORE PUSH1 0x20 PUSH1 0x4 DUP3 ADD MSTORE PUSH1 0x5 PUSH1 0x24 DUP3 ADD MSTORE PUSH5 0x4753323033 PUSH1 0xD8 SHL PUSH1 0x44 DUP3 ADD MSTORE SWAP1 MLOAD SWAP1 DUP2 SWAP1 SUB PUSH1 0x64 ADD SWAP1 REVERT JUMPDEST PUSH1 0x1 PUSH1 0x1 PUSH1 0xA0 SHL SUB DUP4 DUP2 AND PUSH1 0x0 SWAP1 DUP2 MSTORE PUSH1 0x20 DUP2 SWAP1 MSTORE PUSH1 0x40 SWAP1 KECCAK256 SLOAD DUP2 AND SWAP1 DUP4 AND EQ PUSH2 0xCA3 JUMPI PUSH1 0x40 DUP1 MLOAD PUSH3 0x461BCD PUSH1 0xE5 SHL DUP2 MSTORE PUSH1 0x20 PUSH1 0x4 DUP3 ADD MSTORE PUSH1 0x5 PUSH1 0x24 DUP3 ADD MSTORE PUSH5 0x4753323035 PUSH1 0xD8 SHL PUSH1 0x44 DUP3 ADD MSTORE SWAP1 MLOAD SWAP1 DUP2 SWAP1 SUB PUSH1 0x64 ADD SWAP1 REVERT JUMPDEST PUSH1 0x1 PUSH1 0x1 PUSH1 0xA0 SHL SUB DUP3 DUP2 AND PUSH1 0x0 DUP2 DUP2 MSTORE PUSH1 0x20 DUP2 DUP2 MSTORE PUSH1 0x40 DUP1 DUP4 KECCAK256 DUP1 SLOAD DUP8 DUP8 AND DUP1 DUP7 MSTORE DUP4 DUP7 KECCAK256 DUP1 SLOAD SWAP3 DUP10 AND PUSH20 0xFFFFFFFFFFFFFFFFFFFFFFFFFFFFFFFFFFFFFFFF NOT SWAP4 DUP5 AND OR SWAP1 SSTORE SWAP7 DUP11 AND DUP6 MSTORE DUP3 DUP6 KECCAK256 DUP1 SLOAD DUP3 AND SWAP1 SWAP8 OR SWAP1 SWAP7 SSTORE SWAP3 DUP5 SWAP1 MSTORE DUP3 SLOAD SWAP1 SWAP5 AND SWAP1 SWAP2 SSTORE DUP3 MLOAD SWAP2 DUP3 MSTORE SWAP2 MLOAD PUSH32 0xF8D49FC529812E9A7C5C50E69C20F0DCCC0DB8FA95C98BC58CC9A4F1C1299EAF SWAP3 SWAP2 DUP2 SWAP1 SUB SWAP1 SWAP2 ADD SWAP1 LOG1 PUSH1 0x40 DUP1 MLOAD PUSH1 0x1 PUSH1 0x1 PUSH1 0xA0 SHL SUB DUP4 AND DUP2 MSTORE SWAP1 MLOAD PUSH32 0x9465FA0C962CC76958E6373A993326400C1C94F8BE2FE3A952ADFA7F60B2EA26 SWAP2 DUP2 SWAP1 SUB PUSH1 0x20 ADD SWAP1 LOG1 POP POP POP JUMP JUMPDEST PUSH1 0x5 PUSH1 0x20 MSTORE PUSH1 0x0 SWAP1 DUP2 MSTORE PUSH1 0x40 SWAP1 KECCAK256 SLOAD PUSH1 0xFF AND DUP2 JUMP JUMPDEST PUSH1 0x2 SLOAD SWAP1 JUMP JUMPDEST CALLER PUSH1 0x0 SWAP1 DUP2 MSTORE PUSH1 0x4 PUSH1 0x20 MSTORE PUSH1 0x40 SWAP1 KECCAK256 SLOAD PUSH1 0xFF AND PUSH2 0xDE3 JUMPI PUSH1 0x40 MLOAD PUSH3 0x461BCD PUSH1 0xE5 SHL DUP2 MSTORE PUSH1 0x4 ADD DUP1 DUP1 PUSH1 0x20 ADD DUP3 DUP2 SUB DUP3 MSTORE PUSH1 0x2B DUP2 MSTORE PUSH1 0x20 ADD DUP1 PUSH2 0x14BF PUSH1 0x2B SWAP2 CODECOPY PUSH1 0x40 ADD SWAP2 POP POP PUSH1 0x40 MLOAD DUP1 SWAP2 SUB SWAP1 REVERT JUMPDEST PUSH1 0x40 DUP1 MLOAD PUSH1 0x1 PUSH1 0x1 PUSH1 0xA0 SHL SUB DUP1 DUP7 AND PUSH1 0x24 DUP4 ADD MSTORE DUP1 DUP6 AND PUSH1 0x44 DUP4 ADD MSTORE DUP4 AND PUSH1 0x64 DUP1 DUP4 ADD SWAP2 SWAP1 SWAP2 MSTORE DUP3 MLOAD DUP1 DUP4 SUB SWAP1 SWAP2 ADD DUP2 MSTORE PUSH1 0x84 SWAP1 SWAP2 ADD SWAP1 SWAP2 MSTORE PUSH1 0x20 DUP2 ADD DUP1 MLOAD PUSH28 0xFFFFFFFFFFFFFFFFFFFFFFFFFFFFFFFFFFFFFFFFFFFFFFFFFFFFFFFF AND PUSH32 0xE318B52B00000000000000000000000000000000000000000000000000000000 OR SWAP1 MSTORE PUSH1 0x0 PUSH2 0xE6F DUP3 PUSH2 0xAFD JUMP JUMPDEST PUSH1 0x0 DUP2 DUP2 MSTORE PUSH1 0x5 PUSH1 0x20 MSTORE PUSH1 0x40 SWAP1 KECCAK256 SLOAD SWAP1 SWAP2 POP PUSH1 0xFF AND ISZERO PUSH2 0xED6 JUMPI PUSH1 0x40 DUP1 MLOAD PUSH3 0x461BCD PUSH1 0xE5 SHL DUP2 MSTORE PUSH1 0x20 PUSH1 0x4 DUP3 ADD MSTORE PUSH1 0x1D PUSH1 0x24 DUP3 ADD MSTORE PUSH32 0x496E6865726974616E636520616C72656164792065786563757465642E000000 PUSH1 0x44 DUP3 ADD MSTORE SWAP1 MLOAD SWAP1 DUP2 SWAP1 SUB PUSH1 0x64 ADD SWAP1 REVERT JUMPDEST PUSH2 0xEDE PUSH2 0x13E9 JUMP JUMPDEST PUSH2 0xF19 JUMPI PUSH1 0x40 MLOAD PUSH3 0x461BCD PUSH1 0xE5 SHL DUP2 MSTORE PUSH1 0x4 ADD DUP1 DUP1 PUSH1 0x20 ADD DUP3 DUP2 SUB DUP3 MSTORE PUSH1 0x24 DUP2 MSTORE PUSH1 0x20 ADD DUP1 PUSH2 0x1476 PUSH1 0x24 SWAP2 CODECOPY PUSH1 0x40 ADD SWAP2 POP POP PUSH1 0x40 MLOAD DUP1 SWAP2 SUB SWAP1 REVERT JUMPDEST PUSH1 0x0 DUP2 DUP2 MSTORE PUSH1 0x5 PUSH1 0x20 MSTORE PUSH1 0x40 DUP1 DUP3 KECCAK256 DUP1 SLOAD PUSH1 0xFF NOT AND PUSH1 0x1 OR SWAP1 SSTORE MLOAD PUSH32 0x468721A700000000000000000000000000000000000000000000000000000000 DUP2 MSTORE PUSH1 0x1 PUSH1 0x1 PUSH1 0xA0 SHL SUB DUP9 AND PUSH1 0x4 DUP3 ADD DUP2 DUP2 MSTORE PUSH1 0x24 DUP4 ADD DUP5 SWAP1 MSTORE SWAP1 SWAP3 PUSH4 0x468721A7 SWAP3 DUP11 SWAP3 DUP8 SWAP2 DUP4 SWAP2 SWAP1 PUSH1 0x44 DUP2 ADD SWAP1 PUSH1 0x64 ADD DUP4 DUP2 MSTORE PUSH1 0x20 ADD DUP3 DUP2 SUB DUP3 MSTORE DUP5 DUP2 DUP2 MLOAD DUP2 MSTORE PUSH1 0x20 ADD SWAP2 POP DUP1 MLOAD SWAP1 PUSH1 0x20 ADD SWAP1 DUP1 DUP4 DUP4 PUSH1 0x0 JUMPDEST DUP4 DUP2 LT ISZERO PUSH2 0xFC1 JUMPI DUP2 DUP2 ADD MLOAD DUP4 DUP3 ADD MSTORE PUSH1 0x20 ADD PUSH2 0xFA9 JUMP JUMPDEST POP POP POP POP SWAP1 POP SWAP1 DUP2 ADD SWAP1 PUSH1 0x1F AND DUP1 ISZERO PUSH2 0xFEE JUMPI DUP1 DUP3 SUB DUP1 MLOAD PUSH1 0x1 DUP4 PUSH1 0x20 SUB PUSH2 0x100 EXP SUB NOT AND DUP2 MSTORE PUSH1 0x20 ADD SWAP2 POP JUMPDEST POP SWAP6 POP POP POP POP POP POP PUSH1 0x20 PUSH1 0x40 MLOAD DUP1 DUP4 SUB DUP2 PUSH1 0x0 DUP8 DUP1 EXTCODESIZE ISZERO DUP1 ISZERO PUSH2 0x1010 JUMPI PUSH1 0x0 DUP1 REVERT JUMPDEST POP GAS CALL ISZERO DUP1 ISZERO PUSH2 0x1024 JUMPI RETURNDATASIZE PUSH1 0x0 DUP1 RETURNDATACOPY RETURNDATASIZE PUSH1 0x0 REVERT JUMPDEST POP POP POP POP PUSH1 0x40 MLOAD RETURNDATASIZE PUSH1 0x20 DUP2 LT ISZERO PUSH2 0x103A JUMPI PUSH1 0x0 DUP1 REVERT JUMPDEST POP MLOAD PUSH2 0x108D JUMPI PUSH1 0x40 DUP1 MLOAD PUSH3 0x461BCD PUSH1 0xE5 SHL DUP2 MSTORE PUSH1 0x20 PUSH1 0x4 DUP3 ADD MSTORE PUSH1 0x1D PUSH1 0x24 DUP3 ADD MSTORE PUSH32 0x436F756C64206E6F74206578656375746520696E6865726974616E6365000000 PUSH1 0x44 DUP3 ADD MSTORE SWAP1 MLOAD SWAP1 DUP2 SWAP1 SUB PUSH1 0x64 ADD SWAP1 REVERT JUMPDEST POP POP POP POP POP POP JUMP JUMPDEST PUSH2 0x109D PUSH2 0x1286 JUMP JUMPDEST DUP1 PUSH1 0x1 DUP1 SLOAD SUB LT ISZERO PUSH2 0x10DE JUMPI PUSH1 0x40 DUP1 MLOAD PUSH3 0x461BCD PUSH1 0xE5 SHL DUP2 MSTORE PUSH1 0x20 PUSH1 0x4 DUP3 ADD MSTORE PUSH1 0x5 PUSH1 0x24 DUP3 ADD MSTORE PUSH5 0x4753323031 PUSH1 0xD8 SHL PUSH1 0x44 DUP3 ADD MSTORE SWAP1 MLOAD SWAP1 DUP2 SWAP1 SUB PUSH1 0x64 ADD SWAP1 REVERT JUMPDEST PUSH1 0x1 PUSH1 0x1 PUSH1 0xA0 SHL SUB DUP3 AND ISZERO DUP1 ISZERO SWAP1 PUSH2 0x1100 JUMPI POP PUSH1 0x1 PUSH1 0x1 PUSH1 0xA0 SHL SUB DUP3 AND PUSH1 0x1 EQ ISZERO JUMPDEST PUSH2 0x1139 JUMPI PUSH1 0x40 DUP1 MLOAD PUSH3 0x461BCD PUSH1 0xE5 SHL DUP2 MSTORE PUSH1 0x20 PUSH1 0x4 DUP3 ADD MSTORE PUSH1 0x5 PUSH1 0x24 DUP3 ADD MSTORE PUSH5 0x4753323033 PUSH1 0xD8 SHL PUSH1 0x44 DUP3 ADD MSTORE SWAP1 MLOAD SWAP1 DUP2 SWAP1 SUB PUSH1 0x64 ADD SWAP1 REVERT JUMPDEST PUSH1 0x1 PUSH1 0x1 PUSH1 0xA0 SHL SUB DUP4 DUP2 AND PUSH1 0x0 SWAP1 DUP2 MSTORE PUSH1 0x20 DUP2 SWAP1 MSTORE PUSH1 0x40 SWAP1 KECCAK256 SLOAD DUP2 AND SWAP1 DUP4 AND EQ PUSH2 0x1192 JUMPI PUSH1 0x40 DUP1 MLOAD PUSH3 0x461BCD PUSH1 0xE5 SHL DUP2 MSTORE PUSH1 0x20 PUSH1 0x4 DUP3 ADD MSTORE PUSH1 0x5 PUSH1 0x24 DUP3 ADD MSTORE PUSH5 0x4753323035 PUSH1 0xD8 SHL PUSH1 0x44 DUP3 ADD MSTORE SWAP1 MLOAD SWAP1 DUP2 SWAP1 SUB PUSH1 0x64 ADD SWAP1 REVERT JUMPDEST PUSH1 0x1 PUSH1 0x1 PUSH1 0xA0 SHL SUB DUP3 DUP2 AND PUSH1 0x0 DUP2 DUP2 MSTORE PUSH1 0x20 DUP2 DUP2 MSTORE PUSH1 0x40 DUP1 DUP4 KECCAK256 DUP1 SLOAD DUP10 DUP8 AND DUP6 MSTORE DUP3 DUP6 KECCAK256 DUP1 SLOAD SWAP2 SWAP1 SWAP8 AND PUSH20 0xFFFFFFFFFFFFFFFFFFFFFFFFFFFFFFFFFFFFFFFF NOT SWAP2 DUP3 AND OR SWAP1 SWAP7 SSTORE SWAP3 DUP5 SWAP1 MSTORE DUP3 SLOAD SWAP1 SWAP5 AND SWAP1 SWAP2 SSTORE PUSH1 0x1 DUP1 SLOAD PUSH1 0x0 NOT ADD SWAP1 SSTORE DUP3 MLOAD SWAP2 DUP3 MSTORE SWAP2 MLOAD PUSH32 0xF8D49FC529812E9A7C5C50E69C20F0DCCC0DB8FA95C98BC58CC9A4F1C1299EAF SWAP3 SWAP2 DUP2 SWAP1 SUB SWAP1 SWAP2 ADD SWAP1 LOG1 DUP1 PUSH1 0x2 SLOAD EQ PUSH2 0x1233 JUMPI PUSH2 0x1233 DUP2 PUSH2 0x896 JUMP JUMPDEST POP POP POP JUMP JUMPDEST PUSH1 0x4 PUSH1 0x20 MSTORE PUSH1 0x0 SWAP1 DUP2 MSTORE PUSH1 0x40 SWAP1 KECCAK256 SLOAD PUSH1 0xFF AND DUP2 JUMP JUMPDEST PUSH1 0x40 MLOAD DUP1 PUSH1 0x40 ADD PUSH1 0x40 MSTORE DUP1 PUSH1 0x5 DUP2 MSTORE PUSH1 0x20 ADD PUSH32 0x302E312E30000000000000000000000000000000000000000000000000000000 DUP2 MSTORE POP DUP2 JUMP JUMPDEST CALLER ADDRESS EQ PUSH2 0x12DA JUMPI PUSH1 0x40 DUP1 MLOAD PUSH3 0x461BCD PUSH1 0xE5 SHL DUP2 MSTORE PUSH1 0x20 PUSH1 0x4 DUP3 ADD MSTORE PUSH1 0x5 PUSH1 0x24 DUP3 ADD MSTORE PUSH32 0x4753303331000000000000000000000000000000000000000000000000000000 PUSH1 0x44 DUP3 ADD MSTORE SWAP1 MLOAD SWAP1 DUP2 SWAP1 SUB PUSH1 0x64 ADD SWAP1 REVERT JUMPDEST JUMP JUMPDEST PUSH1 0x0 JUMPDEST DUP2 MLOAD DUP2 LT ISZERO PUSH2 0x13D5 JUMPI PUSH1 0x0 DUP3 DUP3 DUP2 MLOAD DUP2 LT PUSH2 0x12F6 JUMPI INVALID JUMPDEST PUSH1 0x20 MUL PUSH1 0x20 ADD ADD MLOAD SWAP1 POP PUSH1 0x0 PUSH1 0x1 PUSH1 0x1 PUSH1 0xA0 SHL SUB AND DUP2 PUSH1 0x1 PUSH1 0x1 PUSH1 0xA0 SHL SUB AND EQ ISZERO PUSH2 0x1352 JUMPI PUSH1 0x40 MLOAD PUSH3 0x461BCD PUSH1 0xE5 SHL DUP2 MSTORE PUSH1 0x4 ADD DUP1 DUP1 PUSH1 0x20 ADD DUP3 DUP2 SUB DUP3 MSTORE PUSH1 0x23 DUP2 MSTORE PUSH1 0x20 ADD DUP1 PUSH2 0x14EA PUSH1 0x23 SWAP2 CODECOPY PUSH1 0x40 ADD SWAP2 POP POP PUSH1 0x40 MLOAD DUP1 SWAP2 SUB SWAP1 REVERT JUMPDEST PUSH1 0x1 PUSH1 0x1 PUSH1 0xA0 SHL SUB DUP2 AND PUSH1 0x0 SWAP1 DUP2 MSTORE PUSH1 0x4 PUSH1 0x20 MSTORE PUSH1 0x40 SWAP1 KECCAK256 SLOAD PUSH1 0xFF AND ISZERO PUSH2 0x13AA JUMPI PUSH1 0x40 MLOAD PUSH3 0x461BCD PUSH1 0xE5 SHL DUP2 MSTORE PUSH1 0x4 ADD DUP1 DUP1 PUSH1 0x20 ADD DUP3 DUP2 SUB DUP3 MSTORE PUSH1 0x25 DUP2 MSTORE PUSH1 0x20 ADD DUP1 PUSH2 0x149A PUSH1 0x25 SWAP2 CODECOPY PUSH1 0x40 ADD SWAP2 POP POP PUSH1 0x40 MLOAD DUP1 SWAP2 SUB SWAP1 REVERT JUMPDEST PUSH1 0x1 PUSH1 0x1 PUSH1 0xA0 SHL SUB AND PUSH1 0x0 SWAP1 DUP2 MSTORE PUSH1 0x4 PUSH1 0x20 MSTORE PUSH1 0x40 SWAP1 KECCAK256 DUP1 SLOAD PUSH1 0xFF NOT AND PUSH1 0x1 SWAP1 DUP2 OR SWAP1 SWAP2 SSTORE ADD PUSH2 0x12DF JUMP JUMPDEST POP DUP1 MLOAD PUSH2 0x7AC SWAP1 PUSH1 0x3 SWAP1 PUSH1 0x20 DUP5 ADD SWAP1 PUSH2 0x13EE JUMP JUMPDEST PUSH1 0x0 SWAP1 JUMP JUMPDEST DUP3 DUP1 SLOAD DUP3 DUP3 SSTORE SWAP1 PUSH1 0x0 MSTORE PUSH1 0x20 PUSH1 0x0 KECCAK256 SWAP1 DUP2 ADD SWAP3 DUP3 ISZERO PUSH2 0x1450 JUMPI SWAP2 PUSH1 0x20 MUL DUP3 ADD JUMPDEST DUP3 DUP2 GT ISZERO PUSH2 0x1450 JUMPI DUP3 MLOAD DUP3 SLOAD PUSH20 0xFFFFFFFFFFFFFFFFFFFFFFFFFFFFFFFFFFFFFFFF NOT AND PUSH1 0x1 PUSH1 0x1 PUSH1 0xA0 SHL SUB SWAP1 SWAP2 AND OR DUP3 SSTORE PUSH1 0x20 SWAP1 SWAP3 ADD SWAP2 PUSH1 0x1 SWAP1 SWAP2 ADD SWAP1 PUSH2 0x140E JUMP JUMPDEST POP PUSH2 0x145C SWAP3 SWAP2 POP PUSH2 0x1460 JUMP JUMPDEST POP SWAP1 JUMP JUMPDEST JUMPDEST DUP1 DUP3 GT ISZERO PUSH2 0x145C JUMPI PUSH1 0x0 DUP2 SSTORE PUSH1 0x1 ADD PUSH2 0x1461 JUMP INVALID COINBASE PUSH4 0x74697665 KECCAK256 PUSH20 0x6166652120496E6865726974616E636520646973 PUSH2 0x6C6C PUSH16 0x7765642E4475706C696361746520696E PUSH9 0x65726974616E742061 PUSH5 0x6472657373 KECCAK256 PUSH17 0x726F76696465644D6574686F642063616E KECCAK256 PUSH16 0x6E6C792062652063616C6C6564206279 KECCAK256 PUSH2 0x6E20 PUSH10 0x6E6865726974616E7421 0x49 PUSH15 0x76616C696420696E6865726974616E PUSH21 0x20616464726573732070726F7669646564A2646970 PUSH7 0x73582212207545 0x27 SWAP11 0xC0 PUSH20 0x5F9E0C89B5964F2B0ABC94044949C1919B1F19B5 DUP12 0xA5 0xB4 0xF7 0xCB 0xAF PUSH5 0x736F6C6343 STOP SMOD SUB STOP CALLER "
        },
        "gasEstimates": {
          "creation": {
            "codeDepositCost": "1088400",
            "executionCost": "1134",
            "totalCost": "1089534"
          },
          "external": {
            "ALLOWANCE_TRANSFER_TYPEHASH()": "244",
            "DOMAIN_SEPARATOR_TYPEHASH()": "266",
            "NAME()": "infinite",
            "VERSION()": "infinite",
            "addOwnerWithThreshold(address,uint256)": "infinite",
            "changeThreshold(uint256)": "22199",
            "getDataHash(bytes)": "infinite",
            "getOwners()": "infinite",
            "getThreshold()": "1043",
            "inherit(address,address,address,address)": "infinite",
            "inheritants(uint256)": "1994",
            "isExecuted(bytes32)": "1207",
            "isInheritant(address)": "1202",
            "isOwner(address)": "1318",
            "reconfigure(address[])": "infinite",
            "removeInheritance()": "infinite",
            "removeOwner(address,address,uint256)": "infinite",
            "setup(address[])": "infinite",
            "swapOwner(address,address,address)": "68104"
          },
          "internal": {
            "_reconfigure(address[] memory)": "infinite",
            "isSafeInactive()": "15"
          }
        },
        "methodIdentifiers": {
          "ALLOWANCE_TRANSFER_TYPEHASH()": "43abf5fe",
          "DOMAIN_SEPARATOR_TYPEHASH()": "1db61b54",
          "NAME()": "a3f4df7e",
          "VERSION()": "ffa1ad74",
          "addOwnerWithThreshold(address,uint256)": "0d582f13",
          "changeThreshold(uint256)": "694e80c3",
          "getDataHash(bytes)": "ae68b056",
          "getOwners()": "a0e67e2b",
          "getThreshold()": "e75235b8",
          "inherit(address,address,address,address)": "ea471723",
          "inheritants(uint256)": "09917101",
          "isExecuted(bytes32)": "e52cb36a",
          "isInheritant(address)": "f904b897",
          "isOwner(address)": "2f54bf6e",
          "reconfigure(address[])": "6518cc9a",
          "removeInheritance()": "9bdaf65b",
          "removeOwner(address,address,uint256)": "f8dc5dd9",
          "setup(address[])": "bd5b853b",
          "swapOwner(address,address,address)": "e318b52b"
        }
      },
      "storageLayout": {
        "storage": [
          {
            "astId": 27,
            "contract": "contracts/InheritanceModule.sol:InheritanceModule",
            "label": "owners",
            "offset": 0,
            "slot": "0",
            "type": "t_mapping(t_address,t_address)"
          },
          {
            "astId": 29,
            "contract": "contracts/InheritanceModule.sol:InheritanceModule",
            "label": "ownerCount",
            "offset": 0,
            "slot": "1",
            "type": "t_uint256"
          },
          {
            "astId": 31,
            "contract": "contracts/InheritanceModule.sol:InheritanceModule",
            "label": "threshold",
            "offset": 0,
            "slot": "2",
            "type": "t_uint256"
          },
          {
            "astId": 589,
            "contract": "contracts/InheritanceModule.sol:InheritanceModule",
            "label": "inheritants",
            "offset": 0,
            "slot": "3",
            "type": "t_array(t_address)dyn_storage"
          },
          {
            "astId": 593,
            "contract": "contracts/InheritanceModule.sol:InheritanceModule",
            "label": "isInheritant",
            "offset": 0,
            "slot": "4",
            "type": "t_mapping(t_address,t_bool)"
          },
          {
            "astId": 597,
            "contract": "contracts/InheritanceModule.sol:InheritanceModule",
            "label": "isExecuted",
            "offset": 0,
            "slot": "5",
            "type": "t_mapping(t_bytes32,t_bool)"
          }
        ],
        "types": {
          "t_address": {
            "encoding": "inplace",
            "label": "address",
            "numberOfBytes": "20"
          },
          "t_array(t_address)dyn_storage": {
            "base": "t_address",
            "encoding": "dynamic_array",
            "label": "address[]",
            "numberOfBytes": "32"
          },
          "t_bool": {
            "encoding": "inplace",
            "label": "bool",
            "numberOfBytes": "1"
          },
          "t_bytes32": {
            "encoding": "inplace",
            "label": "bytes32",
            "numberOfBytes": "32"
          },
          "t_mapping(t_address,t_address)": {
            "encoding": "mapping",
            "key": "t_address",
            "label": "mapping(address => address)",
            "numberOfBytes": "32",
            "value": "t_address"
          },
          "t_mapping(t_address,t_bool)": {
            "encoding": "mapping",
            "key": "t_address",
            "label": "mapping(address => bool)",
            "numberOfBytes": "32",
            "value": "t_bool"
          },
          "t_mapping(t_bytes32,t_bool)": {
            "encoding": "mapping",
            "key": "t_bytes32",
            "label": "mapping(bytes32 => bool)",
            "numberOfBytes": "32",
            "value": "t_bool"
          },
          "t_uint256": {
            "encoding": "inplace",
            "label": "uint256",
            "numberOfBytes": "32"
          }
        }
      },
      "userdoc": {
        "kind": "user",
        "methods": {
          "addOwnerWithThreshold(address,uint256)": {
            "notice": "Adds the owner `owner` to the Safe and updates the threshold to `_threshold`."
          },
          "changeThreshold(uint256)": {
            "notice": "Changes the threshold of the Safe to `_threshold`."
          },
          "removeOwner(address,address,uint256)": {
            "notice": "Removes the owner `owner` from the Safe and updates the threshold to `_threshold`."
          },
          "swapOwner(address,address,address)": {
            "notice": "Replaces the owner `oldOwner` in the Safe with `newOwner`."
          }
        },
        "version": 1
      }
    }
  }
}