{
  "@gnosis.pm/safe-contracts/contracts/base/OwnerManager.sol": {
    "OwnerManager": {
      "abi": [
        {
          "anonymous": false,
          "inputs": [
            {
              "indexed": false,
              "internalType": "address",
              "name": "owner",
              "type": "address"
            }
          ],
          "name": "AddedOwner",
          "type": "event"
        },
        {
          "anonymous": false,
          "inputs": [
            {
              "indexed": false,
              "internalType": "uint256",
              "name": "threshold",
              "type": "uint256"
            }
          ],
          "name": "ChangedThreshold",
          "type": "event"
        },
        {
          "anonymous": false,
          "inputs": [
            {
              "indexed": false,
              "internalType": "address",
              "name": "owner",
              "type": "address"
            }
          ],
          "name": "RemovedOwner",
          "type": "event"
        },
        {
          "inputs": [
            {
              "internalType": "address",
              "name": "owner",
              "type": "address"
            },
            {
              "internalType": "uint256",
              "name": "_threshold",
              "type": "uint256"
            }
          ],
          "name": "addOwnerWithThreshold",
          "outputs": [],
          "stateMutability": "nonpayable",
          "type": "function"
        },
        {
          "inputs": [
            {
              "internalType": "uint256",
              "name": "_threshold",
              "type": "uint256"
            }
          ],
          "name": "changeThreshold",
          "outputs": [],
          "stateMutability": "nonpayable",
          "type": "function"
        },
        {
          "inputs": [],
          "name": "getOwners",
          "outputs": [
            {
              "internalType": "address[]",
              "name": "",
              "type": "address[]"
            }
          ],
          "stateMutability": "view",
          "type": "function"
        },
        {
          "inputs": [],
          "name": "getThreshold",
          "outputs": [
            {
              "internalType": "uint256",
              "name": "",
              "type": "uint256"
            }
          ],
          "stateMutability": "view",
          "type": "function"
        },
        {
          "inputs": [
            {
              "internalType": "address",
              "name": "owner",
              "type": "address"
            }
          ],
          "name": "isOwner",
          "outputs": [
            {
              "internalType": "bool",
              "name": "",
              "type": "bool"
            }
          ],
          "stateMutability": "view",
          "type": "function"
        },
        {
          "inputs": [
            {
              "internalType": "address",
              "name": "prevOwner",
              "type": "address"
            },
            {
              "internalType": "address",
              "name": "owner",
              "type": "address"
            },
            {
              "internalType": "uint256",
              "name": "_threshold",
              "type": "uint256"
            }
          ],
          "name": "removeOwner",
          "outputs": [],
          "stateMutability": "nonpayable",
          "type": "function"
        },
        {
          "inputs": [
            {
              "internalType": "address",
              "name": "prevOwner",
              "type": "address"
            },
            {
              "internalType": "address",
              "name": "oldOwner",
              "type": "address"
            },
            {
              "internalType": "address",
              "name": "newOwner",
              "type": "address"
            }
          ],
          "name": "swapOwner",
          "outputs": [],
          "stateMutability": "nonpayable",
          "type": "function"
        }
      ],
      "devdoc": {
        "author": "Stefan George - <stefan@gnosis.pm>Richard Meissner - <richard@gnosis.pm>",
        "kind": "dev",
        "methods": {
          "addOwnerWithThreshold(address,uint256)": {
            "details": "Allows to add a new owner to the Safe and update the threshold at the same time.      This can only be done via a Safe transaction.",
            "params": {
              "_threshold": "New threshold.",
              "owner": "New owner address."
            }
          },
          "changeThreshold(uint256)": {
            "details": "Allows to update the number of required confirmations by Safe owners.      This can only be done via a Safe transaction.",
            "params": {
              "_threshold": "New threshold."
            }
          },
          "getOwners()": {
            "details": "Returns array of owners.",
            "returns": {
              "_0": "Array of Safe owners."
            }
          },
          "removeOwner(address,address,uint256)": {
            "details": "Allows to remove an owner from the Safe and update the threshold at the same time.      This can only be done via a Safe transaction.",
            "params": {
              "_threshold": "New threshold.",
              "owner": "Owner address to be removed.",
              "prevOwner": "Owner that pointed to the owner to be removed in the linked list"
            }
          },
          "swapOwner(address,address,address)": {
            "details": "Allows to swap/replace an owner from the Safe with another address.      This can only be done via a Safe transaction.",
            "params": {
              "newOwner": "New owner address.",
              "oldOwner": "Owner address to be replaced.",
              "prevOwner": "Owner that pointed to the owner to be replaced in the linked list"
            }
          }
        },
        "title": "OwnerManager - Manages a set of owners and a threshold to perform actions.",
        "version": 1
      },
      "evm": {
        "bytecode": {
          "linkReferences": {},
          "object": "608060405234801561001057600080fd5b506109f4806100206000396000f3fe608060405234801561001057600080fd5b506004361061007d5760003560e01c8063a0e67e2b1161005b578063a0e67e2b14610107578063e318b52b1461015f578063e75235b814610197578063f8dc5dd9146101b15761007d565b80630d582f13146100825780632f54bf6e146100b0578063694e80c3146100ea575b600080fd5b6100ae6004803603604081101561009857600080fd5b506001600160a01b0381351690602001356101e7565b005b6100d6600480360360208110156100c657600080fd5b50356001600160a01b0316610372565b604080519115158252519081900360200190f35b6100ae6004803603602081101561010057600080fd5b50356103ad565b61010f610485565b60408051602080825283518183015283519192839290830191858101910280838360005b8381101561014b578181015183820152602001610133565b505050509050019250505060405180910390f35b6100ae6004803603606081101561017557600080fd5b506001600160a01b038135811691602081013582169160409091013516610567565b61019f6107bf565b60408051918252519081900360200190f35b6100ae600480360360608110156101c757600080fd5b506001600160a01b038135811691602081013590911690604001356107c5565b6101ef610968565b6001600160a01b0382161580159061021157506001600160a01b038216600114155b801561022657506001600160a01b0382163014155b61025f576040805162461bcd60e51b8152602060048201526005602482015264475332303360d81b604482015290519081900360640190fd5b6001600160a01b0382811660009081526020819052604090205416156102b4576040805162461bcd60e51b815260206004820152600560248201526411d4cc8c0d60da1b604482015290519081900360640190fd5b600060208181527fada5013122d395ba3c54772283fb069b10426056ef8ca54750cb9bb552a59e7d80546001600160a01b03868116808652604080872080549390941673ffffffffffffffffffffffffffffffffffffffff19938416179093556001958690528354909116811790925583548401909355825190815291517f9465fa0c962cc76958e6373a993326400c1c94f8be2fe3a952adfa7f60b2ea269281900390910190a1806002541461036e5761036e816103ad565b5050565b60006001600160a01b0382166001148015906103a757506001600160a01b038281166000908152602081905260409020541615155b92915050565b6103b5610968565b6001548111156103f4576040805162461bcd60e51b8152602060048201526005602482015264475332303160d81b604482015290519081900360640190fd5b600181101561044a576040805162461bcd60e51b815260206004820152600560248201527f4753323032000000000000000000000000000000000000000000000000000000604482015290519081900360640190fd5b60028190556040805182815290517f610f7ff2b304ae8903c3de74c60c6ab1f7d6226b3f52c5161905bb5ad4039c939181900360200190a150565b60608060015467ffffffffffffffff811180156104a157600080fd5b506040519080825280602002602001820160405280156104cb578160200160208202803683370190505b506001600090815260208190527fada5013122d395ba3c54772283fb069b10426056ef8ca54750cb9bb552a59e7d54919250906001600160a01b03165b6001600160a01b03811660011461055f578083838151811061052657fe5b6001600160a01b039283166020918202929092018101919091529181166000908152918290526040909120546001929092019116610508565b509091505090565b61056f610968565b6001600160a01b0381161580159061059157506001600160a01b038116600114155b80156105a657506001600160a01b0381163014155b6105df576040805162461bcd60e51b8152602060048201526005602482015264475332303360d81b604482015290519081900360640190fd5b6001600160a01b038181166000908152602081905260409020541615610634576040805162461bcd60e51b815260206004820152600560248201526411d4cc8c0d60da1b604482015290519081900360640190fd5b6001600160a01b0382161580159061065657506001600160a01b038216600114155b61068f576040805162461bcd60e51b8152602060048201526005602482015264475332303360d81b604482015290519081900360640190fd5b6001600160a01b038381166000908152602081905260409020548116908316146106e8576040805162461bcd60e51b8152602060048201526005602482015264475332303560d81b604482015290519081900360640190fd5b6001600160a01b038281166000818152602081815260408083208054878716808652838620805492891673ffffffffffffffffffffffffffffffffffffffff19938416179055968a16855282852080548216909717909655928490528254909416909155825191825291517ff8d49fc529812e9a7c5c50e69c20f0dccc0db8fa95c98bc58cc9a4f1c1299eaf929181900390910190a1604080516001600160a01b038316815290517f9465fa0c962cc76958e6373a993326400c1c94f8be2fe3a952adfa7f60b2ea269181900360200190a1505050565b60025490565b6107cd610968565b806001805403101561080e576040805162461bcd60e51b8152602060048201526005602482015264475332303160d81b604482015290519081900360640190fd5b6001600160a01b0382161580159061083057506001600160a01b038216600114155b610869576040805162461bcd60e51b8152602060048201526005602482015264475332303360d81b604482015290519081900360640190fd5b6001600160a01b038381166000908152602081905260409020548116908316146108c2576040805162461bcd60e51b8152602060048201526005602482015264475332303560d81b604482015290519081900360640190fd5b6001600160a01b038281166000818152602081815260408083208054898716855282852080549190971673ffffffffffffffffffffffffffffffffffffffff199182161790965592849052825490941690915560018054600019019055825191825291517ff8d49fc529812e9a7c5c50e69c20f0dccc0db8fa95c98bc58cc9a4f1c1299eaf929181900390910190a1806002541461096357610963816103ad565b505050565b3330146109bc576040805162461bcd60e51b815260206004820152600560248201527f4753303331000000000000000000000000000000000000000000000000000000604482015290519081900360640190fd5b56fea2646970667358221220688cff7e51ec91290684ea02eab02d52f2ad8dff1c802ea391825143c54dfe3764736f6c63430007030033",
          "opcodes": "PUSH1 0x80 PUSH1 0x40 MSTORE CALLVALUE DUP1 ISZERO PUSH2 0x10 JUMPI PUSH1 0x0 DUP1 REVERT JUMPDEST POP PUSH2 0x9F4 DUP1 PUSH2 0x20 PUSH1 0x0 CODECOPY PUSH1 0x0 RETURN INVALID PUSH1 0x80 PUSH1 0x40 MSTORE CALLVALUE DUP1 ISZERO PUSH2 0x10 JUMPI PUSH1 0x0 DUP1 REVERT JUMPDEST POP PUSH1 0x4 CALLDATASIZE LT PUSH2 0x7D JUMPI PUSH1 0x0 CALLDATALOAD PUSH1 0xE0 SHR DUP1 PUSH4 0xA0E67E2B GT PUSH2 0x5B JUMPI DUP1 PUSH4 0xA0E67E2B EQ PUSH2 0x107 JUMPI DUP1 PUSH4 0xE318B52B EQ PUSH2 0x15F JUMPI DUP1 PUSH4 0xE75235B8 EQ PUSH2 0x197 JUMPI DUP1 PUSH4 0xF8DC5DD9 EQ PUSH2 0x1B1 JUMPI PUSH2 0x7D JUMP JUMPDEST DUP1 PUSH4 0xD582F13 EQ PUSH2 0x82 JUMPI DUP1 PUSH4 0x2F54BF6E EQ PUSH2 0xB0 JUMPI DUP1 PUSH4 0x694E80C3 EQ PUSH2 0xEA JUMPI JUMPDEST PUSH1 0x0 DUP1 REVERT JUMPDEST PUSH2 0xAE PUSH1 0x4 DUP1 CALLDATASIZE SUB PUSH1 0x40 DUP2 LT ISZERO PUSH2 0x98 JUMPI PUSH1 0x0 DUP1 REVERT JUMPDEST POP PUSH1 0x1 PUSH1 0x1 PUSH1 0xA0 SHL SUB DUP2 CALLDATALOAD AND SWAP1 PUSH1 0x20 ADD CALLDATALOAD PUSH2 0x1E7 JUMP JUMPDEST STOP JUMPDEST PUSH2 0xD6 PUSH1 0x4 DUP1 CALLDATASIZE SUB PUSH1 0x20 DUP2 LT ISZERO PUSH2 0xC6 JUMPI PUSH1 0x0 DUP1 REVERT JUMPDEST POP CALLDATALOAD PUSH1 0x1 PUSH1 0x1 PUSH1 0xA0 SHL SUB AND PUSH2 0x372 JUMP JUMPDEST PUSH1 0x40 DUP1 MLOAD SWAP2 ISZERO ISZERO DUP3 MSTORE MLOAD SWAP1 DUP2 SWAP1 SUB PUSH1 0x20 ADD SWAP1 RETURN JUMPDEST PUSH2 0xAE PUSH1 0x4 DUP1 CALLDATASIZE SUB PUSH1 0x20 DUP2 LT ISZERO PUSH2 0x100 JUMPI PUSH1 0x0 DUP1 REVERT JUMPDEST POP CALLDATALOAD PUSH2 0x3AD JUMP JUMPDEST PUSH2 0x10F PUSH2 0x485 JUMP JUMPDEST PUSH1 0x40 DUP1 MLOAD PUSH1 0x20 DUP1 DUP3 MSTORE DUP4 MLOAD DUP2 DUP4 ADD MSTORE DUP4 MLOAD SWAP2 SWAP3 DUP4 SWAP3 SWAP1 DUP4 ADD SWAP2 DUP6 DUP2 ADD SWAP2 MUL DUP1 DUP4 DUP4 PUSH1 0x0 JUMPDEST DUP4 DUP2 LT ISZERO PUSH2 0x14B JUMPI DUP2 DUP2 ADD MLOAD DUP4 DUP3 ADD MSTORE PUSH1 0x20 ADD PUSH2 0x133 JUMP JUMPDEST POP POP POP POP SWAP1 POP ADD SWAP3 POP POP POP PUSH1 0x40 MLOAD DUP1 SWAP2 SUB SWAP1 RETURN JUMPDEST PUSH2 0xAE PUSH1 0x4 DUP1 CALLDATASIZE SUB PUSH1 0x60 DUP2 LT ISZERO PUSH2 0x175 JUMPI PUSH1 0x0 DUP1 REVERT JUMPDEST POP PUSH1 0x1 PUSH1 0x1 PUSH1 0xA0 SHL SUB DUP2 CALLDATALOAD DUP2 AND SWAP2 PUSH1 0x20 DUP2 ADD CALLDATALOAD DUP3 AND SWAP2 PUSH1 0x40 SWAP1 SWAP2 ADD CALLDATALOAD AND PUSH2 0x567 JUMP JUMPDEST PUSH2 0x19F PUSH2 0x7BF JUMP JUMPDEST PUSH1 0x40 DUP1 MLOAD SWAP2 DUP3 MSTORE MLOAD SWAP1 DUP2 SWAP1 SUB PUSH1 0x20 ADD SWAP1 RETURN JUMPDEST PUSH2 0xAE PUSH1 0x4 DUP1 CALLDATASIZE SUB PUSH1 0x60 DUP2 LT ISZERO PUSH2 0x1C7 JUMPI PUSH1 0x0 DUP1 REVERT JUMPDEST POP PUSH1 0x1 PUSH1 0x1 PUSH1 0xA0 SHL SUB DUP2 CALLDATALOAD DUP2 AND SWAP2 PUSH1 0x20 DUP2 ADD CALLDATALOAD SWAP1 SWAP2 AND SWAP1 PUSH1 0x40 ADD CALLDATALOAD PUSH2 0x7C5 JUMP JUMPDEST PUSH2 0x1EF PUSH2 0x968 JUMP JUMPDEST PUSH1 0x1 PUSH1 0x1 PUSH1 0xA0 SHL SUB DUP3 AND ISZERO DUP1 ISZERO SWAP1 PUSH2 0x211 JUMPI POP PUSH1 0x1 PUSH1 0x1 PUSH1 0xA0 SHL SUB DUP3 AND PUSH1 0x1 EQ ISZERO JUMPDEST DUP1 ISZERO PUSH2 0x226 JUMPI POP PUSH1 0x1 PUSH1 0x1 PUSH1 0xA0 SHL SUB DUP3 AND ADDRESS EQ ISZERO JUMPDEST PUSH2 0x25F JUMPI PUSH1 0x40 DUP1 MLOAD PUSH3 0x461BCD PUSH1 0xE5 SHL DUP2 MSTORE PUSH1 0x20 PUSH1 0x4 DUP3 ADD MSTORE PUSH1 0x5 PUSH1 0x24 DUP3 ADD MSTORE PUSH5 0x4753323033 PUSH1 0xD8 SHL PUSH1 0x44 DUP3 ADD MSTORE SWAP1 MLOAD SWAP1 DUP2 SWAP1 SUB PUSH1 0x64 ADD SWAP1 REVERT JUMPDEST PUSH1 0x1 PUSH1 0x1 PUSH1 0xA0 SHL SUB DUP3 DUP2 AND PUSH1 0x0 SWAP1 DUP2 MSTORE PUSH1 0x20 DUP2 SWAP1 MSTORE PUSH1 0x40 SWAP1 KECCAK256 SLOAD AND ISZERO PUSH2 0x2B4 JUMPI PUSH1 0x40 DUP1 MLOAD PUSH3 0x461BCD PUSH1 0xE5 SHL DUP2 MSTORE PUSH1 0x20 PUSH1 0x4 DUP3 ADD MSTORE PUSH1 0x5 PUSH1 0x24 DUP3 ADD MSTORE PUSH5 0x11D4CC8C0D PUSH1 0xDA SHL PUSH1 0x44 DUP3 ADD MSTORE SWAP1 MLOAD SWAP1 DUP2 SWAP1 SUB PUSH1 0x64 ADD SWAP1 REVERT JUMPDEST PUSH1 0x0 PUSH1 0x20 DUP2 DUP2 MSTORE PUSH32 0xADA5013122D395BA3C54772283FB069B10426056EF8CA54750CB9BB552A59E7D DUP1 SLOAD PUSH1 0x1 PUSH1 0x1 PUSH1 0xA0 SHL SUB DUP7 DUP2 AND DUP1 DUP7 MSTORE PUSH1 0x40 DUP1 DUP8 KECCAK256 DUP1 SLOAD SWAP4 SWAP1 SWAP5 AND PUSH20 0xFFFFFFFFFFFFFFFFFFFFFFFFFFFFFFFFFFFFFFFF NOT SWAP4 DUP5 AND OR SWAP1 SWAP4 SSTORE PUSH1 0x1 SWAP6 DUP7 SWAP1 MSTORE DUP4 SLOAD SWAP1 SWAP2 AND DUP2 OR SWAP1 SWAP3 SSTORE DUP4 SLOAD DUP5 ADD SWAP1 SWAP4 SSTORE DUP3 MLOAD SWAP1 DUP2 MSTORE SWAP2 MLOAD PUSH32 0x9465FA0C962CC76958E6373A993326400C1C94F8BE2FE3A952ADFA7F60B2EA26 SWAP3 DUP2 SWAP1 SUB SWAP1 SWAP2 ADD SWAP1 LOG1 DUP1 PUSH1 0x2 SLOAD EQ PUSH2 0x36E JUMPI PUSH2 0x36E DUP2 PUSH2 0x3AD JUMP JUMPDEST POP POP JUMP JUMPDEST PUSH1 0x0 PUSH1 0x1 PUSH1 0x1 PUSH1 0xA0 SHL SUB DUP3 AND PUSH1 0x1 EQ DUP1 ISZERO SWAP1 PUSH2 0x3A7 JUMPI POP PUSH1 0x1 PUSH1 0x1 PUSH1 0xA0 SHL SUB DUP3 DUP2 AND PUSH1 0x0 SWAP1 DUP2 MSTORE PUSH1 0x20 DUP2 SWAP1 MSTORE PUSH1 0x40 SWAP1 KECCAK256 SLOAD AND ISZERO ISZERO JUMPDEST SWAP3 SWAP2 POP POP JUMP JUMPDEST PUSH2 0x3B5 PUSH2 0x968 JUMP JUMPDEST PUSH1 0x1 SLOAD DUP2 GT ISZERO PUSH2 0x3F4 JUMPI PUSH1 0x40 DUP1 MLOAD PUSH3 0x461BCD PUSH1 0xE5 SHL DUP2 MSTORE PUSH1 0x20 PUSH1 0x4 DUP3 ADD MSTORE PUSH1 0x5 PUSH1 0x24 DUP3 ADD MSTORE PUSH5 0x4753323031 PUSH1 0xD8 SHL PUSH1 0x44 DUP3 ADD MSTORE SWAP1 MLOAD SWAP1 DUP2 SWAP1 SUB PUSH1 0x64 ADD SWAP1 REVERT JUMPDEST PUSH1 0x1 DUP2 LT ISZERO PUSH2 0x44A JUMPI PUSH1 0x40 DUP1 MLOAD PUSH3 0x461BCD PUSH1 0xE5 SHL DUP2 MSTORE PUSH1 0x20 PUSH1 0x4 DUP3 ADD MSTORE PUSH1 0x5 PUSH1 0x24 DUP3 ADD MSTORE PUSH32 0x4753323032000000000000000000000000000000000000000000000000000000 PUSH1 0x44 DUP3 ADD MSTORE SWAP1 MLOAD SWAP1 DUP2 SWAP1 SUB PUSH1 0x64 ADD SWAP1 REVERT JUMPDEST PUSH1 0x2 DUP2 SWAP1 SSTORE PUSH1 0x40 DUP1 MLOAD DUP3 DUP2 MSTORE SWAP1 MLOAD PUSH32 0x610F7FF2B304AE8903C3DE74C60C6AB1F7D6226B3F52C5161905BB5AD4039C93 SWAP2 DUP2 SWAP1 SUB PUSH1 0x20 ADD SWAP1 LOG1 POP JUMP JUMPDEST PUSH1 0x60 DUP1 PUSH1 0x1 SLOAD PUSH8 0xFFFFFFFFFFFFFFFF DUP2 GT DUP1 ISZERO PUSH2 0x4A1 JUMPI PUSH1 0x0 DUP1 REVERT JUMPDEST POP PUSH1 0x40 MLOAD SWAP1 DUP1 DUP3 MSTORE DUP1 PUSH1 0x20 MUL PUSH1 0x20 ADD DUP3 ADD PUSH1 0x40 MSTORE DUP1 ISZERO PUSH2 0x4CB JUMPI DUP2 PUSH1 0x20 ADD PUSH1 0x20 DUP3 MUL DUP1 CALLDATASIZE DUP4 CALLDATACOPY ADD SWAP1 POP JUMPDEST POP PUSH1 0x1 PUSH1 0x0 SWAP1 DUP2 MSTORE PUSH1 0x20 DUP2 SWAP1 MSTORE PUSH32 0xADA5013122D395BA3C54772283FB069B10426056EF8CA54750CB9BB552A59E7D SLOAD SWAP2 SWAP3 POP SWAP1 PUSH1 0x1 PUSH1 0x1 PUSH1 0xA0 SHL SUB AND JUMPDEST PUSH1 0x1 PUSH1 0x1 PUSH1 0xA0 SHL SUB DUP2 AND PUSH1 0x1 EQ PUSH2 0x55F JUMPI DUP1 DUP4 DUP4 DUP2 MLOAD DUP2 LT PUSH2 0x526 JUMPI INVALID JUMPDEST PUSH1 0x1 PUSH1 0x1 PUSH1 0xA0 SHL SUB SWAP3 DUP4 AND PUSH1 0x20 SWAP2 DUP3 MUL SWAP3 SWAP1 SWAP3 ADD DUP2 ADD SWAP2 SWAP1 SWAP2 MSTORE SWAP2 DUP2 AND PUSH1 0x0 SWAP1 DUP2 MSTORE SWAP2 DUP3 SWAP1 MSTORE PUSH1 0x40 SWAP1 SWAP2 KECCAK256 SLOAD PUSH1 0x1 SWAP3 SWAP1 SWAP3 ADD SWAP2 AND PUSH2 0x508 JUMP JUMPDEST POP SWAP1 SWAP2 POP POP SWAP1 JUMP JUMPDEST PUSH2 0x56F PUSH2 0x968 JUMP JUMPDEST PUSH1 0x1 PUSH1 0x1 PUSH1 0xA0 SHL SUB DUP2 AND ISZERO DUP1 ISZERO SWAP1 PUSH2 0x591 JUMPI POP PUSH1 0x1 PUSH1 0x1 PUSH1 0xA0 SHL SUB DUP2 AND PUSH1 0x1 EQ ISZERO JUMPDEST DUP1 ISZERO PUSH2 0x5A6 JUMPI POP PUSH1 0x1 PUSH1 0x1 PUSH1 0xA0 SHL SUB DUP2 AND ADDRESS EQ ISZERO JUMPDEST PUSH2 0x5DF JUMPI PUSH1 0x40 DUP1 MLOAD PUSH3 0x461BCD PUSH1 0xE5 SHL DUP2 MSTORE PUSH1 0x20 PUSH1 0x4 DUP3 ADD MSTORE PUSH1 0x5 PUSH1 0x24 DUP3 ADD MSTORE PUSH5 0x4753323033 PUSH1 0xD8 SHL PUSH1 0x44 DUP3 ADD MSTORE SWAP1 MLOAD SWAP1 DUP2 SWAP1 SUB PUSH1 0x64 ADD SWAP1 REVERT JUMPDEST PUSH1 0x1 PUSH1 0x1 PUSH1 0xA0 SHL SUB DUP2 DUP2 AND PUSH1 0x0 SWAP1 DUP2 MSTORE PUSH1 0x20 DUP2 SWAP1 MSTORE PUSH1 0x40 SWAP1 KECCAK256 SLOAD AND ISZERO PUSH2 0x634 JUMPI PUSH1 0x40 DUP1 MLOAD PUSH3 0x461BCD PUSH1 0xE5 SHL DUP2 MSTORE PUSH1 0x20 PUSH1 0x4 DUP3 ADD MSTORE PUSH1 0x5 PUSH1 0x24 DUP3 ADD MSTORE PUSH5 0x11D4CC8C0D PUSH1 0xDA SHL PUSH1 0x44 DUP3 ADD MSTORE SWAP1 MLOAD SWAP1 DUP2 SWAP1 SUB PUSH1 0x64 ADD SWAP1 REVERT JUMPDEST PUSH1 0x1 PUSH1 0x1 PUSH1 0xA0 SHL SUB DUP3 AND ISZERO DUP1 ISZERO SWAP1 PUSH2 0x656 JUMPI POP PUSH1 0x1 PUSH1 0x1 PUSH1 0xA0 SHL SUB DUP3 AND PUSH1 0x1 EQ ISZERO JUMPDEST PUSH2 0x68F JUMPI PUSH1 0x40 DUP1 MLOAD PUSH3 0x461BCD PUSH1 0xE5 SHL DUP2 MSTORE PUSH1 0x20 PUSH1 0x4 DUP3 ADD MSTORE PUSH1 0x5 PUSH1 0x24 DUP3 ADD MSTORE PUSH5 0x4753323033 PUSH1 0xD8 SHL PUSH1 0x44 DUP3 ADD MSTORE SWAP1 MLOAD SWAP1 DUP2 SWAP1 SUB PUSH1 0x64 ADD SWAP1 REVERT JUMPDEST PUSH1 0x1 PUSH1 0x1 PUSH1 0xA0 SHL SUB DUP4 DUP2 AND PUSH1 0x0 SWAP1 DUP2 MSTORE PUSH1 0x20 DUP2 SWAP1 MSTORE PUSH1 0x40 SWAP1 KECCAK256 SLOAD DUP2 AND SWAP1 DUP4 AND EQ PUSH2 0x6E8 JUMPI PUSH1 0x40 DUP1 MLOAD PUSH3 0x461BCD PUSH1 0xE5 SHL DUP2 MSTORE PUSH1 0x20 PUSH1 0x4 DUP3 ADD MSTORE PUSH1 0x5 PUSH1 0x24 DUP3 ADD MSTORE PUSH5 0x4753323035 PUSH1 0xD8 SHL PUSH1 0x44 DUP3 ADD MSTORE SWAP1 MLOAD SWAP1 DUP2 SWAP1 SUB PUSH1 0x64 ADD SWAP1 REVERT JUMPDEST PUSH1 0x1 PUSH1 0x1 PUSH1 0xA0 SHL SUB DUP3 DUP2 AND PUSH1 0x0 DUP2 DUP2 MSTORE PUSH1 0x20 DUP2 DUP2 MSTORE PUSH1 0x40 DUP1 DUP4 KECCAK256 DUP1 SLOAD DUP8 DUP8 AND DUP1 DUP7 MSTORE DUP4 DUP7 KECCAK256 DUP1 SLOAD SWAP3 DUP10 AND PUSH20 0xFFFFFFFFFFFFFFFFFFFFFFFFFFFFFFFFFFFFFFFF NOT SWAP4 DUP5 AND OR SWAP1 SSTORE SWAP7 DUP11 AND DUP6 MSTORE DUP3 DUP6 KECCAK256 DUP1 SLOAD DUP3 AND SWAP1 SWAP8 OR SWAP1 SWAP7 SSTORE SWAP3 DUP5 SWAP1 MSTORE DUP3 SLOAD SWAP1 SWAP5 AND SWAP1 SWAP2 SSTORE DUP3 MLOAD SWAP2 DUP3 MSTORE SWAP2 MLOAD PUSH32 0xF8D49FC529812E9A7C5C50E69C20F0DCCC0DB8FA95C98BC58CC9A4F1C1299EAF SWAP3 SWAP2 DUP2 SWAP1 SUB SWAP1 SWAP2 ADD SWAP1 LOG1 PUSH1 0x40 DUP1 MLOAD PUSH1 0x1 PUSH1 0x1 PUSH1 0xA0 SHL SUB DUP4 AND DUP2 MSTORE SWAP1 MLOAD PUSH32 0x9465FA0C962CC76958E6373A993326400C1C94F8BE2FE3A952ADFA7F60B2EA26 SWAP2 DUP2 SWAP1 SUB PUSH1 0x20 ADD SWAP1 LOG1 POP POP POP JUMP JUMPDEST PUSH1 0x2 SLOAD SWAP1 JUMP JUMPDEST PUSH2 0x7CD PUSH2 0x968 JUMP JUMPDEST DUP1 PUSH1 0x1 DUP1 SLOAD SUB LT ISZERO PUSH2 0x80E JUMPI PUSH1 0x40 DUP1 MLOAD PUSH3 0x461BCD PUSH1 0xE5 SHL DUP2 MSTORE PUSH1 0x20 PUSH1 0x4 DUP3 ADD MSTORE PUSH1 0x5 PUSH1 0x24 DUP3 ADD MSTORE PUSH5 0x4753323031 PUSH1 0xD8 SHL PUSH1 0x44 DUP3 ADD MSTORE SWAP1 MLOAD SWAP1 DUP2 SWAP1 SUB PUSH1 0x64 ADD SWAP1 REVERT JUMPDEST PUSH1 0x1 PUSH1 0x1 PUSH1 0xA0 SHL SUB DUP3 AND ISZERO DUP1 ISZERO SWAP1 PUSH2 0x830 JUMPI POP PUSH1 0x1 PUSH1 0x1 PUSH1 0xA0 SHL SUB DUP3 AND PUSH1 0x1 EQ ISZERO JUMPDEST PUSH2 0x869 JUMPI PUSH1 0x40 DUP1 MLOAD PUSH3 0x461BCD PUSH1 0xE5 SHL DUP2 MSTORE PUSH1 0x20 PUSH1 0x4 DUP3 ADD MSTORE PUSH1 0x5 PUSH1 0x24 DUP3 ADD MSTORE PUSH5 0x4753323033 PUSH1 0xD8 SHL PUSH1 0x44 DUP3 ADD MSTORE SWAP1 MLOAD SWAP1 DUP2 SWAP1 SUB PUSH1 0x64 ADD SWAP1 REVERT JUMPDEST PUSH1 0x1 PUSH1 0x1 PUSH1 0xA0 SHL SUB DUP4 DUP2 AND PUSH1 0x0 SWAP1 DUP2 MSTORE PUSH1 0x20 DUP2 SWAP1 MSTORE PUSH1 0x40 SWAP1 KECCAK256 SLOAD DUP2 AND SWAP1 DUP4 AND EQ PUSH2 0x8C2 JUMPI PUSH1 0x40 DUP1 MLOAD PUSH3 0x461BCD PUSH1 0xE5 SHL DUP2 MSTORE PUSH1 0x20 PUSH1 0x4 DUP3 ADD MSTORE PUSH1 0x5 PUSH1 0x24 DUP3 ADD MSTORE PUSH5 0x4753323035 PUSH1 0xD8 SHL PUSH1 0x44 DUP3 ADD MSTORE SWAP1 MLOAD SWAP1 DUP2 SWAP1 SUB PUSH1 0x64 ADD SWAP1 REVERT JUMPDEST PUSH1 0x1 PUSH1 0x1 PUSH1 0xA0 SHL SUB DUP3 DUP2 AND PUSH1 0x0 DUP2 DUP2 MSTORE PUSH1 0x20 DUP2 DUP2 MSTORE PUSH1 0x40 DUP1 DUP4 KECCAK256 DUP1 SLOAD DUP10 DUP8 AND DUP6 MSTORE DUP3 DUP6 KECCAK256 DUP1 SLOAD SWAP2 SWAP1 SWAP8 AND PUSH20 0xFFFFFFFFFFFFFFFFFFFFFFFFFFFFFFFFFFFFFFFF NOT SWAP2 DUP3 AND OR SWAP1 SWAP7 SSTORE SWAP3 DUP5 SWAP1 MSTORE DUP3 SLOAD SWAP1 SWAP5 AND SWAP1 SWAP2 SSTORE PUSH1 0x1 DUP1 SLOAD PUSH1 0x0 NOT ADD SWAP1 SSTORE DUP3 MLOAD SWAP2 DUP3 MSTORE SWAP2 MLOAD PUSH32 0xF8D49FC529812E9A7C5C50E69C20F0DCCC0DB8FA95C98BC58CC9A4F1C1299EAF SWAP3 SWAP2 DUP2 SWAP1 SUB SWAP1 SWAP2 ADD SWAP1 LOG1 DUP1 PUSH1 0x2 SLOAD EQ PUSH2 0x963 JUMPI PUSH2 0x963 DUP2 PUSH2 0x3AD JUMP JUMPDEST POP POP POP JUMP JUMPDEST CALLER ADDRESS EQ PUSH2 0x9BC JUMPI PUSH1 0x40 DUP1 MLOAD PUSH3 0x461BCD PUSH1 0xE5 SHL DUP2 MSTORE PUSH1 0x20 PUSH1 0x4 DUP3 ADD MSTORE PUSH1 0x5 PUSH1 0x24 DUP3 ADD MSTORE PUSH32 0x4753303331000000000000000000000000000000000000000000000000000000 PUSH1 0x44 DUP3 ADD MSTORE SWAP1 MLOAD SWAP1 DUP2 SWAP1 SUB PUSH1 0x64 ADD SWAP1 REVERT JUMPDEST JUMP INVALID LOG2 PUSH5 0x6970667358 0x22 SLT KECCAK256 PUSH9 0x8CFF7E51EC91290684 0xEA MUL 0xEA 0xB0 0x2D MSTORE CALLCODE 0xAD DUP14 SELFDESTRUCT SHR DUP1 0x2E LOG3 SWAP2 DUP3 MLOAD NUMBER 0xC5 0x4D INVALID CALLDATACOPY PUSH5 0x736F6C6343 STOP SMOD SUB STOP CALLER "
        },
        "gasEstimates": {
          "creation": {
            "codeDepositCost": "509600",
            "executionCost": "543",
            "totalCost": "510143"
          },
          "external": {
            "addOwnerWithThreshold(address,uint256)": "infinite",
            "changeThreshold(uint256)": "22199",
            "getOwners()": "infinite",
            "getThreshold()": "1042",
            "isOwner(address)": "1251",
            "removeOwner(address,address,uint256)": "infinite",
            "swapOwner(address,address,address)": "68059"
          },
          "internal": {
            "setupOwners(address[] memory,uint256)": "infinite"
          }
        },
        "methodIdentifiers": {
          "addOwnerWithThreshold(address,uint256)": "0d582f13",
          "changeThreshold(uint256)": "694e80c3",
          "getOwners()": "a0e67e2b",
          "getThreshold()": "e75235b8",
          "isOwner(address)": "2f54bf6e",
          "removeOwner(address,address,uint256)": "f8dc5dd9",
          "swapOwner(address,address,address)": "e318b52b"
        }
      },
      "storageLayout": {
        "storage": [
          {
            "astId": 27,
            "contract": "@gnosis.pm/safe-contracts/contracts/base/OwnerManager.sol:OwnerManager",
            "label": "owners",
            "offset": 0,
            "slot": "0",
            "type": "t_mapping(t_address,t_address)"
          },
          {
            "astId": 29,
            "contract": "@gnosis.pm/safe-contracts/contracts/base/OwnerManager.sol:OwnerManager",
            "label": "ownerCount",
            "offset": 0,
            "slot": "1",
            "type": "t_uint256"
          },
          {
            "astId": 31,
            "contract": "@gnosis.pm/safe-contracts/contracts/base/OwnerManager.sol:OwnerManager",
            "label": "threshold",
            "offset": 0,
            "slot": "2",
            "type": "t_uint256"
          }
        ],
        "types": {
          "t_address": {
            "encoding": "inplace",
            "label": "address",
            "numberOfBytes": "20"
          },
          "t_mapping(t_address,t_address)": {
            "encoding": "mapping",
            "key": "t_address",
            "label": "mapping(address => address)",
            "numberOfBytes": "32",
            "value": "t_address"
          },
          "t_uint256": {
            "encoding": "inplace",
            "label": "uint256",
            "numberOfBytes": "32"
          }
        }
      },
      "userdoc": {
        "kind": "user",
        "methods": {
          "addOwnerWithThreshold(address,uint256)": {
            "notice": "Adds the owner `owner` to the Safe and updates the threshold to `_threshold`."
          },
          "changeThreshold(uint256)": {
            "notice": "Changes the threshold of the Safe to `_threshold`."
          },
          "removeOwner(address,address,uint256)": {
            "notice": "Removes the owner `owner` from the Safe and updates the threshold to `_threshold`."
          },
          "swapOwner(address,address,address)": {
            "notice": "Replaces the owner `oldOwner` in the Safe with `newOwner`."
          }
        },
        "version": 1
      }
    }
  }
}