{
  "_format": "hh-sol-artifact-1",
  "contractName": "InheritanceModule",
  "sourceName": "contracts/InheritanceModule.sol",
  "abi": [
    {
      "anonymous": false,
      "inputs": [
        {
          "indexed": false,
          "internalType": "address",
          "name": "owner",
          "type": "address"
        }
      ],
      "name": "AddedOwner",
      "type": "event"
    },
    {
      "anonymous": false,
      "inputs": [
        {
          "indexed": false,
          "internalType": "uint256",
          "name": "threshold",
          "type": "uint256"
        }
      ],
      "name": "ChangedThreshold",
      "type": "event"
    },
    {
      "anonymous": false,
      "inputs": [
        {
          "indexed": false,
          "internalType": "address",
          "name": "owner",
          "type": "address"
        }
      ],
      "name": "RemovedOwner",
      "type": "event"
    },
    {
      "inputs": [],
      "name": "ALLOWANCE_TRANSFER_TYPEHASH",
      "outputs": [
        {
          "internalType": "bytes32",
          "name": "",
          "type": "bytes32"
        }
      ],
      "stateMutability": "view",
      "type": "function"
    },
    {
      "inputs": [],
      "name": "DOMAIN_SEPARATOR_TYPEHASH",
      "outputs": [
        {
          "internalType": "bytes32",
          "name": "",
          "type": "bytes32"
        }
      ],
      "stateMutability": "view",
      "type": "function"
    },
    {
      "inputs": [],
      "name": "NAME",
      "outputs": [
        {
          "internalType": "string",
          "name": "",
          "type": "string"
        }
      ],
      "stateMutability": "view",
      "type": "function"
    },
    {
      "inputs": [],
      "name": "VERSION",
      "outputs": [
        {
          "internalType": "string",
          "name": "",
          "type": "string"
        }
      ],
      "stateMutability": "view",
      "type": "function"
    },
    {
      "inputs": [
        {
          "internalType": "address",
          "name": "owner",
          "type": "address"
        },
        {
          "internalType": "uint256",
          "name": "_threshold",
          "type": "uint256"
        }
      ],
      "name": "addOwnerWithThreshold",
      "outputs": [],
      "stateMutability": "nonpayable",
      "type": "function"
    },
    {
      "inputs": [
        {
          "internalType": "uint256",
          "name": "_threshold",
          "type": "uint256"
        }
      ],
      "name": "changeThreshold",
      "outputs": [],
      "stateMutability": "nonpayable",
      "type": "function"
    },
    {
      "inputs": [
        {
          "internalType": "bytes",
          "name": "data",
          "type": "bytes"
        }
      ],
      "name": "getDataHash",
      "outputs": [
        {
          "internalType": "bytes32",
          "name": "",
          "type": "bytes32"
        }
      ],
      "stateMutability": "pure",
      "type": "function"
    },
    {
      "inputs": [],
      "name": "getOwners",
      "outputs": [
        {
          "internalType": "address[]",
          "name": "",
          "type": "address[]"
        }
      ],
      "stateMutability": "view",
      "type": "function"
    },
    {
      "inputs": [],
      "name": "getThreshold",
      "outputs": [
        {
          "internalType": "uint256",
          "name": "",
          "type": "uint256"
        }
      ],
      "stateMutability": "view",
      "type": "function"
    },
    {
      "inputs": [
        {
          "internalType": "contract GnosisSafe",
          "name": "safe",
          "type": "address"
        },
        {
          "internalType": "address",
          "name": "prevOwner",
          "type": "address"
        },
        {
          "internalType": "address",
          "name": "oldOwner",
          "type": "address"
        },
        {
          "internalType": "address",
          "name": "newOwner",
          "type": "address"
        }
      ],
      "name": "inherit",
      "outputs": [],
      "stateMutability": "nonpayable",
      "type": "function"
    },
    {
      "inputs": [
        {
          "internalType": "uint256",
          "name": "",
          "type": "uint256"
        }
      ],
      "name": "inheritants",
      "outputs": [
        {
          "internalType": "address",
          "name": "",
          "type": "address"
        }
      ],
      "stateMutability": "view",
      "type": "function"
    },
    {
      "inputs": [
        {
          "internalType": "bytes32",
          "name": "",
          "type": "bytes32"
        }
      ],
      "name": "isExecuted",
      "outputs": [
        {
          "internalType": "bool",
          "name": "",
          "type": "bool"
        }
      ],
      "stateMutability": "view",
      "type": "function"
    },
    {
      "inputs": [
        {
          "internalType": "address",
          "name": "",
          "type": "address"
        }
      ],
      "name": "isInheritant",
      "outputs": [
        {
          "internalType": "bool",
          "name": "",
          "type": "bool"
        }
      ],
      "stateMutability": "view",
      "type": "function"
    },
    {
      "inputs": [
        {
          "internalType": "address",
          "name": "owner",
          "type": "address"
        }
      ],
      "name": "isOwner",
      "outputs": [
        {
          "internalType": "bool",
          "name": "",
          "type": "bool"
        }
      ],
      "stateMutability": "view",
      "type": "function"
    },
    {
      "inputs": [
        {
          "internalType": "address[]",
          "name": "_inheritants",
          "type": "address[]"
        }
      ],
      "name": "reconfigure",
      "outputs": [],
      "stateMutability": "nonpayable",
      "type": "function"
    },
    {
      "inputs": [],
      "name": "removeInheritance",
      "outputs": [],
      "stateMutability": "nonpayable",
      "type": "function"
    },
    {
      "inputs": [
        {
          "internalType": "address",
          "name": "prevOwner",
          "type": "address"
        },
        {
          "internalType": "address",
          "name": "owner",
          "type": "address"
        },
        {
          "internalType": "uint256",
          "name": "_threshold",
          "type": "uint256"
        }
      ],
      "name": "removeOwner",
      "outputs": [],
      "stateMutability": "nonpayable",
      "type": "function"
    },
    {
      "inputs": [
        {
          "internalType": "address[]",
          "name": "_inheritants",
          "type": "address[]"
        }
      ],
      "name": "setup",
      "outputs": [],
      "stateMutability": "nonpayable",
      "type": "function"
    },
    {
      "inputs": [
        {
          "internalType": "address",
          "name": "prevOwner",
          "type": "address"
        },
        {
          "internalType": "address",
          "name": "oldOwner",
          "type": "address"
        },
        {
          "internalType": "address",
          "name": "newOwner",
          "type": "address"
        }
      ],
      "name": "swapOwner",
      "outputs": [],
      "stateMutability": "nonpayable",
      "type": "function"
    }
  ],
  "bytecode": "0x608060405234801561001057600080fd5b50611542806100206000396000f3fe608060405234801561001057600080fd5b50600436106101515760003560e01c8063a3f4df7e116100cd578063e75235b811610081578063f8dc5dd911610066578063f8dc5dd91461059a578063f904b897146105d0578063ffa1ad74146105f657610151565b8063e75235b814610554578063ea4717231461055c57610151565b8063bd5b853b116100b2578063bd5b853b1461045c578063e318b52b146104ff578063e52cb36a1461053757610151565b8063a3f4df7e14610339578063ae68b056146103b657610151565b806343abf5fe11610124578063694e80c311610109578063694e80c3146102bc5780639bdaf65b146102d9578063a0e67e2b146102e157610151565b806343abf5fe146102115780636518cc9a1461021957610151565b806309917101146101565780630d582f131461018f5780631db61b54146101bd5780632f54bf6e146101d7575b600080fd5b6101736004803603602081101561016c57600080fd5b50356105fe565b604080516001600160a01b039092168252519081900360200190f35b6101bb600480360360408110156101a557600080fd5b506001600160a01b038135169060200135610625565b005b6101c56107b0565b60408051918252519081900360200190f35b6101fd600480360360208110156101ed57600080fd5b50356001600160a01b03166107d4565b604080519115158252519081900360200190f35b6101c561080f565b6101bb6004803603602081101561022f57600080fd5b81019060208101813564010000000081111561024a57600080fd5b82018360208201111561025c57600080fd5b8035906020019184602083028401116401000000008311171561027e57600080fd5b919080806020026020016040519081016040528093929190818152602001838360200280828437600092019190915250929550610833945050505050565b6101bb600480360360208110156102d257600080fd5b5035610896565b6101bb61096e565b6102e96109e2565b60408051602080825283518183015283519192839290830191858101910280838360005b8381101561032557818101518382015260200161030d565b505050509050019250505060405180910390f35b610341610ac4565b6040805160208082528351818301528351919283929083019185019080838360005b8381101561037b578181015183820152602001610363565b50505050905090810190601f1680156103a85780820380516001836020036101000a031916815260200191505b509250505060405180910390f35b6101c5600480360360208110156103cc57600080fd5b8101906020810181356401000000008111156103e757600080fd5b8201836020820111156103f957600080fd5b8035906020019184600183028401116401000000008311171561041b57600080fd5b91908080601f016020809104026020016040519081016040528093929190818152602001838380828437600092019190915250929550610afd945050505050565b6101bb6004803603602081101561047257600080fd5b81019060208101813564010000000081111561048d57600080fd5b82018360208201111561049f57600080fd5b803590602001918460208302840111640100000000831117156104c157600080fd5b919080806020026020016040519081016040528093929190818152602001838360200280828437600092019190915250929550610b08945050505050565b6101bb6004803603606081101561051557600080fd5b506001600160a01b038135811691602081013582169160409091013516610b22565b6101fd6004803603602081101561054d57600080fd5b5035610d7a565b6101c5610d8f565b6101bb6004803603608081101561057257600080fd5b506001600160a01b038135811691602081013582169160408201358116916060013516610d95565b6101bb600480360360608110156105b057600080fd5b506001600160a01b03813581169160208101359091169060400135611095565b6101fd600480360360208110156105e657600080fd5b50356001600160a01b0316611238565b61034161124d565b6003818154811061060b57fe5b6000918252602090912001546001600160a01b0316905081565b61062d611286565b6001600160a01b0382161580159061064f57506001600160a01b038216600114155b801561066457506001600160a01b0382163014155b61069d576040805162461bcd60e51b8152602060048201526005602482015264475332303360d81b604482015290519081900360640190fd5b6001600160a01b0382811660009081526020819052604090205416156106f2576040805162461bcd60e51b815260206004820152600560248201526411d4cc8c0d60da1b604482015290519081900360640190fd5b600060208181527fada5013122d395ba3c54772283fb069b10426056ef8ca54750cb9bb552a59e7d80546001600160a01b03868116808652604080872080549390941673ffffffffffffffffffffffffffffffffffffffff19938416179093556001958690528354909116811790925583548401909355825190815291517f9465fa0c962cc76958e6373a993326400c1c94f8be2fe3a952adfa7f60b2ea269281900390910190a180600254146107ac576107ac81610896565b5050565b7f47e79534a245952e8b16893a336b85a3d9ea9fa8c573f3d803afb92a7946921881565b60006001600160a01b03821660011480159061080957506001600160a01b038281166000908152602081905260409020541615155b92915050565b7f80b006280932094e7cc965863eb5118dc07e5d272c6670c4a7c87299e04fceeb81565b61083b611286565b60005b6003548110156108895760006003828154811061085757fe5b60009182526020808320909101546001600160a01b031682526004905260409020805460ff191690555060010161083e565b50610893816112dc565b50565b61089e611286565b6001548111156108dd576040805162461bcd60e51b8152602060048201526005602482015264475332303160d81b604482015290519081900360640190fd5b6001811015610933576040805162461bcd60e51b815260206004820152600560248201527f4753323032000000000000000000000000000000000000000000000000000000604482015290519081900360640190fd5b60028190556040805182815290517f610f7ff2b304ae8903c3de74c60c6ab1f7d6226b3f52c5161905bb5ad4039c939181900360200190a150565b610976611286565b60005b6003548110156109c45760006003828154811061099257fe5b60009182526020808320909101546001600160a01b031682526004905260409020805460ff1916905550600101610979565b506040805160008152602081019182905251610893916003916113ee565b60608060015467ffffffffffffffff811180156109fe57600080fd5b50604051908082528060200260200182016040528015610a28578160200160208202803683370190505b506001600090815260208190527fada5013122d395ba3c54772283fb069b10426056ef8ca54750cb9bb552a59e7d54919250906001600160a01b03165b6001600160a01b038116600114610abc5780838381518110610a8357fe5b6001600160a01b039283166020918202929092018101919091529181166000908152918290526040909120546001929092019116610a65565b509091505090565b6040518060400160405280601281526020017f496e6865726974616e6365204d6f64756c65000000000000000000000000000081525081565b805160209091012090565b610b1933610b14610d8f565b610625565b610893816112dc565b610b2a611286565b6001600160a01b03811615801590610b4c57506001600160a01b038116600114155b8015610b6157506001600160a01b0381163014155b610b9a576040805162461bcd60e51b8152602060048201526005602482015264475332303360d81b604482015290519081900360640190fd5b6001600160a01b038181166000908152602081905260409020541615610bef576040805162461bcd60e51b815260206004820152600560248201526411d4cc8c0d60da1b604482015290519081900360640190fd5b6001600160a01b03821615801590610c1157506001600160a01b038216600114155b610c4a576040805162461bcd60e51b8152602060048201526005602482015264475332303360d81b604482015290519081900360640190fd5b6001600160a01b03838116600090815260208190526040902054811690831614610ca3576040805162461bcd60e51b8152602060048201526005602482015264475332303560d81b604482015290519081900360640190fd5b6001600160a01b038281166000818152602081815260408083208054878716808652838620805492891673ffffffffffffffffffffffffffffffffffffffff19938416179055968a16855282852080548216909717909655928490528254909416909155825191825291517ff8d49fc529812e9a7c5c50e69c20f0dccc0db8fa95c98bc58cc9a4f1c1299eaf929181900390910190a1604080516001600160a01b038316815290517f9465fa0c962cc76958e6373a993326400c1c94f8be2fe3a952adfa7f60b2ea269181900360200190a1505050565b60056020526000908152604090205460ff1681565b60025490565b3360009081526004602052604090205460ff16610de35760405162461bcd60e51b815260040180806020018281038252602b8152602001806114bf602b913960400191505060405180910390fd5b604080516001600160a01b038086166024830152808516604483015283166064808301919091528251808303909101815260849091019091526020810180517bffffffffffffffffffffffffffffffffffffffffffffffffffffffff167fe318b52b000000000000000000000000000000000000000000000000000000001790526000610e6f82610afd565b60008181526005602052604090205490915060ff1615610ed6576040805162461bcd60e51b815260206004820152601d60248201527f496e6865726974616e636520616c72656164792065786563757465642e000000604482015290519081900360640190fd5b610ede6113e9565b610f195760405162461bcd60e51b81526004018080602001828103825260248152602001806114766024913960400191505060405180910390fd5b600081815260056020526040808220805460ff19166001179055517f468721a70000000000000000000000000000000000000000000000000000000081526001600160a01b0388166004820181815260248301849052909263468721a7928a9287918391906044810190606401838152602001828103825284818151815260200191508051906020019080838360005b83811015610fc1578181015183820152602001610fa9565b50505050905090810190601f168015610fee5780820380516001836020036101000a031916815260200191505b5095505050505050602060405180830381600087803b15801561101057600080fd5b505af1158015611024573d6000803e3d6000fd5b505050506040513d602081101561103a57600080fd5b505161108d576040805162461bcd60e51b815260206004820152601d60248201527f436f756c64206e6f74206578656375746520696e6865726974616e6365000000604482015290519081900360640190fd5b505050505050565b61109d611286565b80600180540310156110de576040805162461bcd60e51b8152602060048201526005602482015264475332303160d81b604482015290519081900360640190fd5b6001600160a01b0382161580159061110057506001600160a01b038216600114155b611139576040805162461bcd60e51b8152602060048201526005602482015264475332303360d81b604482015290519081900360640190fd5b6001600160a01b03838116600090815260208190526040902054811690831614611192576040805162461bcd60e51b8152602060048201526005602482015264475332303560d81b604482015290519081900360640190fd5b6001600160a01b038281166000818152602081815260408083208054898716855282852080549190971673ffffffffffffffffffffffffffffffffffffffff199182161790965592849052825490941690915560018054600019019055825191825291517ff8d49fc529812e9a7c5c50e69c20f0dccc0db8fa95c98bc58cc9a4f1c1299eaf929181900390910190a180600254146112335761123381610896565b505050565b60046020526000908152604090205460ff1681565b6040518060400160405280600581526020017f302e312e3000000000000000000000000000000000000000000000000000000081525081565b3330146112da576040805162461bcd60e51b815260206004820152600560248201527f4753303331000000000000000000000000000000000000000000000000000000604482015290519081900360640190fd5b565b60005b81518110156113d55760008282815181106112f657fe5b6020026020010151905060006001600160a01b0316816001600160a01b031614156113525760405162461bcd60e51b81526004018080602001828103825260238152602001806114ea6023913960400191505060405180910390fd5b6001600160a01b03811660009081526004602052604090205460ff16156113aa5760405162461bcd60e51b815260040180806020018281038252602581526020018061149a6025913960400191505060405180910390fd5b6001600160a01b03166000908152600460205260409020805460ff19166001908117909155016112df565b5080516107ac9060039060208401906113ee565b600090565b828054828255906000526020600020908101928215611450579160200282015b82811115611450578251825473ffffffffffffffffffffffffffffffffffffffff19166001600160a01b0390911617825560209092019160019091019061140e565b5061145c929150611460565b5090565b5b8082111561145c576000815560010161146156fe41637469766520736166652120496e6865726974616e636520646973616c6c6f7765642e4475706c696361746520696e6865726974616e7420616464726573732070726f76696465644d6574686f642063616e206f6e6c792062652063616c6c656420627920616e20696e6865726974616e7421496e76616c696420696e6865726974616e7420616464726573732070726f7669646564a26469706673582212207545279ac0735f9e0c89b5964f2b0abc94044949c1919b1f19b58ba5b4f7cbaf64736f6c63430007030033",
  "linkReferences": {},
  "deployedLinkReferences": {}
}